:100000000C94E4080C9401090C9401090C94010966
:100010000C9401090C9401090C94100B0C94010927
:100020000C9401090C9401090C9401090C94010928
:100030000C9401090C9401090C9401090C94010918
:100040000C94FC0A0C9401090C9401090C9401090C
:100050000C9401090C9401090C9401090C940109F8
:100060000C9401090C9401090C9401090C940109E8
:100070000C9401090C9401090C940109A519D719D4
:10008000161A781AAE1A211B4B1BCB18971BD11BC3
:100090000A1CC7191B1D681AA81A1E1D431B7D1BAD
:1000A0008D1BC41BFC1B321C3F3D2E23242FFC7CCC
:1000B0003C1C0C0484C4E4F46088A8904028D00858
:1000C0002078B048E0A0F068D85010C03018709880
:1000D000B8C8328C5616549400000000000000038B
:1000E00003FFFF00000000000070707000000000BF
:1000F00000FFFF000000000000E0E0E0000000C0A2
:10010000C0FFFFC0C00000000000000000000000B1
:10011000000000000000000000000000008080805F
:1001200080808000000000000080808080808080CF
:1001300080808080000080808080808080808080BF
:10014000800000000000000000000000FCFE07012D
:100150000100000001033FFCF000000000FFFF80F1
:1001600080808080010700000000FFFF8080808089
:1001700080010700000000000000000000000F1FC9
:1001800038606040404060303F0F03000040407FD7
:100190007F60404000000000000040407F7F6040E2
:1001A000400000000000000000000000000000000F
:1001B00000000080808080808000000000000080BF
:1001C000808080000000000000808080808000002F
:1001D000000000000000000000000000000000001F
:1001E0000000FCFE07010100000001033FFCF000DD
:1001F000000000FF0F0F1E78E0C0000001FF0000AC
:1002000000000000000000000000000000000000EE
:10021000000000000F1F38606040404060303F0F1A
:1002200003000040407F7040000001030F1E787FF4
:1002300000000000000000000000000000000000BE
:10024000000000000000808080808080808080002E
:10025000000000008080808080808080808080001E
:10026000000000000000808080808000000000000E
:1002700000000000000000000000FFFF8080808080
:10028000C17F3E0000000000FFFF404040404001B1
:1002900007000000FCFE070101000000010702004A
:1002A0000000000000000000000040407F7F604030
:1002B00001070F3C7860400040407F7F4040404055
:1002C0004040707800000F1F387060604060603000
:1002D000100000000000000000000000808080800E
:1002E000000000000000808080808000000000008E
:1002F00000000000000000000000000000000000FE
:1003000000000000000000000000000000000000ED
:10031000FF0F0F1E78E0C0000001FF00000000008A
:1003200000000000000000000000000000000000CD
:1003300000000000000000000000000000000000BD
:1003400040407F7040000001030F1E787F000000D6
:10035000000000000000000000000000000000009D
:10036000000000000000000000000000000000008D
:1003700000008080808080000000000080800000FD
:1003800000008080808080000000000000000000ED
:10039000000000000000000000000000000000005D
:1003A0000000000000031FFFF0000000E03E073FD8
:1003B000FCC0000080F01F030000000000000000EF
:1003C000000000000000000000000000000000002D
:1003D000000000000000000000011F7F703E0300CD
:1003E0000000033F7C781F010000000000000000B7
:1003F00000000000000000000000000000000000FD
:1004000000000000000000008080808080800000EC
:1004100000000000000080800000000000000000DC
:1004200000000000000000000000000000000000CC
:10043000000000000000000000000000FFFF0100BD
:100440000000000000C0F81E031FFEF08000000046
:10045000000000000000000000000000000000009C
:1004600000000000000000000000000040407F7F0E
:100470006040004040707E474202020202477F7C9B
:1004800060400000000000000000000000000000CC
:10049000000000000000000000000000000080805C
:1004A00080808080000080808080808080808000CC
:1004B000000000000000000000000000000000003C
:1004C000000000000000000000000000000000002C
:1004D0000000FFFF010000000000FFFF404040401F
:1004E000E1BF9F00000000000000000000000000CD
:1004F00000000000000000000000000000000000FC
:10050000000040407F7F6040000040407F7F4040CF
:10051000404040713F1E000000000000000000004D
:1005200000000000000000000000000000000000CB
:1005300000000000000080808080800000000080BB
:10054000808080808080808080808000808080802B
:10055000808080808000000000000000000000001B
:100560000000000000003F7F61E0C0C18307000081
:10057000000701000000FFFF00000001070000006D
:10058000FFFF80808080C17F3E00000000000000EF
:100590000000000000000018386040404061333F18
:1005A0000E000000000040607F7F4040000000001F
:1005B00040407F7F604001070F3C786040000000B2
:1005C000000000000000000000008080808080802B
:1005D000000000808080808000808080808080009B
:1005E000000000000000000000000000000000000B
:1005F0000000000000000000000000000001FFFFFC
:1006000000000000000000FF0100000000FFFF01EB
:1006100000000000000000000000000000000000DA
:1006200000000000000000000000000000000000CA
:100630001F3F706040404060301F00000040407F1E
:100640007F404040404040787C00000000000000B7
:10065000000000000000000000000000000000009A
:10066000808080808080808080000000000080800A
:1006700080808080808080808000000000000000FA
:10068000008080000000000000008080808080806A
:10069000808080800000000080808080808000005A
:1006A0000080808080800000000000FFFF8080804C
:1006B00080C17F3E0000000000FFFF4040404040FE
:1006C00001070000000000C0F81E031FFEF08000BC
:1006D0000000000000FFFF00000000010107FEFC19
:1006E000E00000030F3EF8E080E0380F0301000057
:1006F000000040407F7F604001070F3C7860400071
:1007000040407F7F40404040404070784040707E95
:10071000474202020202477F7C60400040407F7FE8
:10072000404040406060381F0F0100000000404022
:100730007F7F4040000000000000008080808080BB
:1007400080808080000000008080808080800000A9
:100750000000008080808080800000008080808099
:100760008080808080000000000000808080808089
:100770000000000000008080808080800000000079
:10078000000000000000FFFF0000000081FF7E006D
:10079000000000FFFF010000000000000000030F48
:1007A0003EF8E080E0380F0301000000FF0F0F1E4D
:1007B00078E0C0000001FF00000000F8FE07010122
:1007C0000000008183878280000000000040407F9D
:1007D0007F61414101010000000040407F7F4040B7
:1007E00040404040787C00000040407F7F40400017
:1007F00000000040407F7040000001030F1E787F22
:10080000000000000F1F383060404040407F3F3FF5
:100810000000000001008080808080808080800057
:100820000000000080808080808080808080800048
:100830000000000000008080808080000000000038
:1008400000000000000000000000000000000000A8
:100850000000000000000000000000000000000098
:1008600000FFFF80808080C17F3E0000000000FF0D
:10087000FF40404040400107000000FCFE0701012E
:10088000000000010702000000000000000000005E
:100890000000000000000000000000000000000058
:1008A000000000000000000040407F7F6040010722
:1008B0000F3C7860400040407F7F404040404040D7
:1008C000707800000F1F387060604060603010006A
:1008D0000000000000000000000000000000000018
:1008E0000000000000000000000000000000007E8A
:1008F0007EFF81BDBDBDBD81BDBDBDBD81BDBDBDD9
:10090000BD81BDBDBDBD81FF000000000000000035
:1009100000000000000000000000000000000000D7
:10092000007E7EFF818181818181BDBDBDBD81BD94
:10093000BDBDBD81BDBDBDBD81FF0000000000008B
:1009400000000000000000000000000000000000A7
:100950000000007E7EFF8181818181818181818192
:1009600081BDBDBDBD81BDBDBDBD81FF000000001D
:100970000000000000000000000000000000000077
:1009800000000000007E7EFF818181818181818164
:100990008181818181818181BDBDBDBD81FF0000DB
:1009A0000000000000000000000000000000000047
:1009B000000000000000007E7EFF81818181818136
:1009C000818181818181818181818181818181FF99
:1009D0000000000000000000000000000000000017
:1009E0000000000000000000000000000000000007
:1009F0000000C0C0C00000000000000000000000B7
:100A000000000000000000000000000000000000E6
:100A100000000000000000F8FC0606060606FCF8D0
:100A200000007FFFC0C0C0C0C0FF7F00000000000A
:100A3000000000000000000000000000000000FCBA
:100A4000F80000000000000000007F3C00000000F3
:100A50000000000000000000000004060606060674
:100A6000FCF800007EFFC3C3C3C3C3C34100000042
:100A7000000000000000000000000004060606065A
:100A800006FCF800000043C3C3C3C3C37F3C00009F
:100A90000000000000000000000000FCFC0000005E
:100AA0000000FCFC000003030303030303FFFC003E
:100AB000000000000000000000000000F8FC060636
:100AC0000606060604000041C3C3C3C3C3C3FF7EBA
:100AD00000000000000000000000000000F8FC061C
:100AE00006060606040000007FFFC3C3C3C3C3FF9E
:100AF0007E00000000000000000000000000000474
:100B00000606060606FCF8000000000000000000D3
:100B1000FF7C0000000000000000000000000078E2
:100B2000FC0606060606FC7800007BFFC3C3C3C3B1
:100B3000C3FF7B0000000000000000000000000078
:100B4000F8FC0606060606FCF800000041C3C3C315
:100B5000C3C37F3C00000000000000000000000054
:100B60000000000000000000000000030303030376
:100B70000303030303000000000000000000000066
:100B80000000000000F0F000000000000303030379
:100B90003F3F0303030300000000000000000000CB
:100BA000000000FEFF030303030303030303FFFE30
:100BB0000000EFFF000000000000000000FFEF0059
:100BC000007FFFC0C0C0C0C0C0C0C0C0FF7F000069
:100BD0000000000000000000000000FFFE00000018
:100BE00000000000000000000000FFEF0000000017
:100BF000000000000000000000FF7F00000203036F
:100C00000303030303030303FFFE0000E8F81818BF
:100C1000181818181818181F0F00007FFFC0C0C040
:100C2000C0C0C0C0C0C0C040000002030303030333
:100C30000303030303FFFE00000818181818181810
:100C400018181818FFEF000040C0C0C0C0C0C0C0D6
:100C5000C0C0C0FF7F0000FEFF00000000000000D9
:100C60000000FFFE00000F1F181818181818181899
:100C700018FFEF000000000000000000000000006E
:100C8000FF7F0000FEFF03030303030303030303CB
:100C90000000000F1F181818181818181818F8E076
:100CA000000000C0C0C0C0C0C0C0C0C0C0FF7F0046
:100CB00000FEFF0303030303030303030302000017
:100CC000EFFF181818181818181818F8E800007FFF
:100CD000FFC0C0C0C0C0C0C0C0C0FF7F00000203D2
:100CE000030303030303030303FFFE0000000000EC
:100CF0000000000000000000FFEF00000000000006
:100D000000000000000000FF7F0000FEFF0303035F
:100D1000030303030303FFFE0000EFFF1818181876
:100D20001818181818FFEF00007FFFC0C0C0C0C01F
:100D3000C0C0C0C0FF7F0000FEFF03030303030326
:100D4000030303FFFE00000F1F18181818181818C7
:100D50001818FFEF000000C0C0C0C0C0C0C0C0C0B5
:100D6000C0FF7F0000000000000000000000000045
:100D70000000000000000000000000000000000073
:100D80000000000000000000000000000000000063
:100D90000000000000000000000000000000000053
:100DA0000000000000000000000000000000000043
:100DB0000000000000000000000000000000000033
:100DC0000000000000000000000000000000000023
:100DD0000000000000000000000000000000000013
:100DE0000000000000000000000000000000000003
:100DF0000008F88888887830000008F808000008A3
:100E00000808F808081800000000000000000000B2
:100E100000000000008080808080808080888F8833
:100E20008081878C8880888F8880808080888F8868
:100E300080808080808080808080808080808080B2
:100E40008000000000000000000878C80000C838DA
:100E50000800E0F00808080810F0000008F8080092
:100E60000000000000000000000000000080808002
:100E700080808080808080838E8E81808080838748
:100E80008888888884878080888F888888888C80F4
:100E900080808080808080808000000000000000D2
:100EA0000070588888980000080808F8080818009A
:100EB00008F8080808F870000000000000000000B2
:100EC000000000000080808080808080808488888E
:100ED000888D87808080888F88808080888F8989AE
:100EE0008180808080808080808080808080808001
:100EF000800000000000080808F80808180008F83A
:100F000008000000F808000008F83860C00008F881
:100F1000080008F888888808180000000080808091
:100F200080808080888F8880808080878C88888877
:100F300087808080888F88808183868F8080888F5B
:100F4000888888888C80808080000000000008F8F5
:100F500038E0800000E018F8080000001018F800E1
:100F6000000008F888888878300000000000000041
:100F700000000000008080808080888F8880878EBD
:100F80008380888F8880808088888F888080888F01
:100F90008880808080808080808080808080808049
:100FA00080000000000008F838E0800000E018F839
:100FB000080000001018F800000008F888888878F9
:100FC0003000000000000000000000000080808071
:100FD0008080888F8880878E8380888F88808080BB
:100FE00088888F888080888F888081878C8880809F
:100FF00080808080808080808000000000000878F1
:10100000C80000E038E00000C838080008F8080808
:1010100008F8700008F838E0800000E018F80800D0
:10102000000000000080808080808080838E878028
:1010300080818F8E81808080888F89898180808067
:10104000888F8880878E8380888F8880808080804A
:101050008000000008F88880C02018080008F838D0
:10106000E08000006018F8080000E0F008080808B8
:1010700010F0000008F80808080830E000808080C0
:10108000888F898081838E8888888F8880878E83E7
:1010900080888F88808083878888888884878080FC
:1010A000888F88888888868380000000000008F880
:1010B00088888808180008F808000008F808000068
:1010C0000000000000000000000000000000000020
:1010D00000000000008080808080888F8888808069
:1010E0008080888F888080888F888888888C80809E
:1010F00080808080808080808080808080808080F0
:1011000080000000000008F838E08000006018F857
:101110000800000000E01838E000000008F88888A7
:10112000887830000000000000000000008080800F
:101130008080888F8880878E8380888F8880808851
:101140008F818181898F8C88888F888081878C8826
:10115000808080808080808080000000000008F80F
:10116000888888F87000000000E01838E00000006F
:101170000008F83860C00008F808000008F80808FF
:10118000080830E0008080808080888F8888888987
:10119000878080888F818181898F8C8080888F88EB
:1011A000808183868F808080888F888888888683E6
:1011B0008045464765666700202B2D2E303132333F
:1011C000343536373839680011241FBECFEFD8E0E8
:1011D000DEBFCDBF11E0A0E0B1E0E8E6F4E402C07C
:1011E00005900D92AC35B107D9F723E0ACE5B1E03D
:1011F00001C01D92AB38B207E1F70E9486170C942C
:1012000032220C94000080917A00876080937A00EB
:1012100080917C0080937C0080917C0080937C0096
:1012200080917C00826080937C0080917A0080684D
:1012300080937A0080917A00806480937A00809114
:101240007A0086FDFCCF809178002091790090E0B3
:10125000922B853921E0920710F484E010C08A3A7D
:1012600021E0920710F483E00AC0813B21E092075D
:1012700010F482E004C08F3B914020F481E0809321
:101280008A03089510928A030895CF9345980E9487
:101290005A0C43980E945A0CC8E0459A0E945A0C76
:1012A00045980E945A0CC150C1F7439ACF910895B6
:1012B000CF93459A0E945A0C43980E945A0CC8E05A
:1012C000459A0E945A0C45980E945A0CC150C1F789
:1012D0004598439ACF910895CF9345980E945A0C10
:1012E00044980E945A0CC8E0459A0E945A0C4598AE
:1012F0000E945A0CC150C1F7449ACF910895CF93E0
:10130000459A0E945A0C44980E945A0CC8E0459A8B
:101310000E945A0C45980E945A0CC150C1F7459A38
:10132000449ACF9108951F93CF93DF93182FD62F10
:10133000C42F8130B9F4463079F048F4453009F0D3
:1013400069C010925F0180E00E94A90C24C0473060
:1013500089F1483029F15EC081E00E94A90C109308
:101360005F0112C0613081F54630D1F018F445308C
:1013700009F150C0473051F0483009F04BC081E0CE
:101380000E94A90CD0935F01C7E044C080E00E9496
:10139000A90C10925F0184E00E945E0CC6E03AC086
:1013A00010925F0180E00E94A90C80E00E945E0C18
:1013B000C5E030C010925F0180E00E94A90C88E077
:1013C0000E945E0CC8E026C04630E1F048F445308B
:1013D00009F510925F0180E00E94A90C80E018C01E
:1013E000473049F04830B1F410925F0180E00E942C
:1013F000A90C88E00DC081E00E94A90C81E08093D7
:101400005F0108C080E00E94A90C10925F0184E097
:101410000E945E0C8C2FDF91CF911F910895CF9287
:10142000DF92EF92FF92FC014091640150916501BF
:10143000209162013091630182819381A481B58101
:101440004217530711F54081518160E070E0841B21
:10145000950BA60BB70BC684D784E088F188C81615
:10146000D906EA06FB06E8F582839383A483B58355
:1014700086819781A085B185841B950BA60BB70B40
:1014800086839783A087B1872CC0409164015091D7
:10149000650120916201309163014217530709F100
:1014A0004081518160E070E0840F951FA61FB71F37
:1014B000C284D384E484F5848C159D05AE05BF05F4
:1014C00080F482839383A483B58386819781A085EA
:1014D000B185480F591F6A1F7B1F4683578360875A
:1014E0007187C280D380E480F580C701B6010E9475
:1014F000E411D701C60122E0B695A7959795879587
:101500002A95D1F7BC01CD016A5872408109910931
:101510000E948B1140918A03C701B6010E94EC130F
:101520000E94B5161092670110926601FF90EF902D
:10153000DF90CF900895CF93DF93EB01873021F1B7
:101540008A3009F045C05B985C985B985C9A0E9471
:101550005A0C5B985C9888EE97E9A9E6B2E08A831A
:101560009B83AC83BD838E839F83A887B98788EED6
:101570009BE8ABE6B2E08A879B87AC87BD8788EAA9
:101580009EE7A8E6B2E020C05B985C985B9A5C9806
:101590000E945A0C5B985C9888E29DE3ADEAB1E04A
:1015A0008A839B83AC83BD838E839F83A887B987FF
:1015B00088E696E5AEEAB1E08A879B87AC87BD876F
:1015C00088E299E4ABEAB1E08E879F87A88BB98B5C
:1015D00081E090E0909367018093660180916601BD
:1015E00090916701019729F4CE01DF91CF910C947E
:1015F0000F0ADF91CF9108951F920F920FB60F92AD
:1016000011248F938BB185FB882780F980FF5D9A29
:1016100080FD5D988F910F900FBE0F901F901895D1
:101620001F920F920FB60F9211242F933F938F9317
:101630009F9386B187FB882780F990E0909365019E
:101640008093640186B186FB222720F930E0309335
:1016500063012093620181E090E0909367018093A1
:101660006601109288039F918F913F912F910F9067
:101670000FBE0F901F9018954F925F926F927F92BE
:101680008F929F92AF92BF92CF92DF92EF92FF9292
:1016900081E080937C0080917A00806880937A005A
:1016A00080917A00806480937A0080917A0086FD30
:1016B000FCCF80917A00806880937A0080917A00D4
:1016C000806480937A0080917A0086FDFCCF6091DF
:1016D00078008091790070E0782B80E090E00E94A3
:1016E000631F20E030E040EA50E40E94F11F20E058
:1016F00030EC4FE754E40E94C21E20E030E04AE79D
:1017000054E40E94F11F0E94341F6B017C0110926F
:101710007C0080917A00806880937A0080917A00C2
:10172000806480937A0080917A0086FDFCCF80915E
:101730007A00806880937A0080917A008064809338
:101740007A0080917A0086FDFCCF8091780090919C
:101750007900682F70E0792B80E090E00E94631F91
:1017600020E030E040EA50E40E94F11F20E030EC3D
:101770004FE754E40E94C21E4B015C01B60180E0B9
:1017800090E00E94631F6B017C0120E030E04AE79B
:1017900054E4C501B4010E94F11F0E94341F80E08F
:1017A00090E00E94631F4B015C019B01AC01C701EB
:1017B000B6010E94561E2B013C01A5019401C701F0
:1017C000B6010E94551E9B01AC01C301B2010E94EB
:1017D000C21E20E030E040E251E40E94F11F20E010
:1017E00030E040E05FE30E94561E0E94341FCB01B0
:1017F000FF90EF90DF90CF90BF90AF909F908F9031
:101800007F906F905F904F900895109273015E9853
:10181000F89460E082E00E948B107894089581E053
:10182000809373015E9AF89461E082E00E948B10CD
:10183000789408950E94921584E00E940E150E94EB
:101840003C0B0C94A31510928803089580917201AB
:10185000807805990AC0811102C091E001C092E030
:1018600020917101922B9093710106990AC0811108
:1018700002C082E001C081E090917101892B8093C8
:10188000710108956091890370E080EF90E00E94FB
:101890008E20709378036093770380E380937201C6
:1018A0008091710184608093710108958091890312
:1018B00090E00895B19BFECFB19A08959091720186
:1018C000937F892B80937201809171018460809352
:1018D0007101089590917201892308959091720188
:1018E00089278093720180917101846080937101D6
:1018F0000895823071F49091710194FD80936E008F
:101900008091710185FF17C08091720186FF10C020
:1019100011C0813081F48091710184FD10926E00BC
:101920008091710185FF07C08091720186FF02C01E
:101930005A9A08955A98089580917201982F907339
:10194000809171018F7C892B8093710181E00C94CF
:10195000790C882339F0809171018F7C80618093AC
:10196000710108950C949C0C0E94420C0C949C0CE8
:101970000F931F93CF93DF930E949C0C0E940F0C38
:1019800082E00E94790C00ED17E0C0E0D0E00599FC
:1019900009C081E00E94790CDF91CF911F910F91D6
:1019A0000C94050C069BF5CF0E945A0C2196C2336D
:1019B000D10521F40E941A0CC0E0D0E001501109B9
:1019C00031F7E7CFCF93DF93C82FCC2351F0D091DD
:1019D0007703DD2321F00E945A0CD150FACFC15079
:1019E000F4CFDF91CF910895CF93C82F82E00E946A
:1019F000790CC13021F0C23029F483E001C081E0CC
:101A00000E94E20C81E0CF910C94790C613091F44A
:101A1000813031F480917001882331F1815007C009
:101A2000823011F5809170018F3FF1F08F5F8093CC
:101A300070011AC090918903813021F4923348F4E7
:101A40009F5F05C0823029F49B3018F0915090932D
:101A500089036091890370E080EF90E00E948E20FE
:101A60007093780360937703809171018460809311
:101A7000710181E00E94F40C81E00E94E20C82E09E
:101A80000E94F40C83E00C94E20CCF9390ED980F3D
:101A90009A3030F4E82FF0E0E258FF4FC49101C0D3
:101AA000C0E89FE9980F9A3128F4E82FF0E0E95A4E
:101AB000FF4FC4919FEB980F9A3128F4E82FF0E084
:101AC000E958FF4FC49120E030E0F901E855FF4F9D
:101AD000E4918E1304C0F901EE52FF4FC4912F5FC1
:101AE0003F4F2630310589F7803259F484E00FC02A
:101AF000C7FF0AC082E00E94F40C81E00E94E20C61
:101B0000CC0FC038A9F702C081E0F5CF82E0CF91B9
:101B10000C94E20CCF93C8E081E00E94F40C81E0C9
:101B20000E94E20CC150C1F783E0CF910C94E20C0B
:101B30000F931F93CF93DF93FC0101900020E9F7EF
:101B40003197CE2FC81BD82F8C01802F8D1B8C175F
:101B500050F4059B08C0069B06C0F80181918F01D7
:101B60000E94450DF2CFDF91CF911F910F91089503
:101B70001F93CF93DF9300D000D01F92CDB7DEB775
:101B800010E02AE030E0009771F0E1E0F0E0EC0FC7
:101B9000FD1FE10FF11DB9010E947A20805D808355
:101BA000CB011F5FF0CF112359F01150E1E0F0E0BD
:101BB000EC0FFD1FE10FF11D80810E94450DF3CF59
:101BC00080E20F900F900F900F900F90DF91CF91C8
:101BD0001F910C94450DCF93C82F80916E01909169
:101BE0006F01009729F0019790936F0180936E0128
:101BF000C11102C010926D0180916C01813009F415
:101C0000CAC020F0823009F4E2C0F7C00E94260C5E
:101C1000809172018C70843049F018F4882331F07F
:101C200029C0883071F08C30E1F024C080916B01C4
:101C300080959091710189238093710110926B01BD
:101C400019C080917101982F9370933039F490915D
:101C50006A01992361F0909589230AC090936A01E3
:101C600009C080917101982F9370933019F48E7F81
:101C70008093710180916E0190916F01892B09F021
:101C800049C080916901882309F43CC090916801A2
:101C9000990F916027E030E0281B310901C0990FAE
:101CA0002A95EAF720E030E0822FF901E255FF4F54
:101CB000E4919E130DC02A3010F4805D0FC02432D1
:101CC00010F4895C0BC0F901EC57FF4F849106C0FA
:101CD0002F5F3F4F2A32310539F780E010926901BA
:101CE000109268012091770330917803220F331FFF
:101CF000220F331F30936F0120936E0191E0909378
:101D00006D017CC080916D01882321F010926D01DE
:101D100080E274C090917101892F837009F46DC0C5
:101D200010926D01809169018F5F809369018091AC
:101D30006801880F809368012091770330917803C0
:101D400090FF08C030936F0120936E0181E0809373
:101D50006B010FC0A901440F551F240F351F30938D
:101D60006F0120936E0192E090936B0181608093EC
:101D70006801C11102C00E940F0C82E00E94790C20
:101D8000809171018C7F8093710181E080936C015F
:101D90000E94230C32C0809172018C70843011F447
:101DA0000E94260C80916E0190916F01892B29F57C
:101DB00081E00E94790C8091770390917803909351
:101DC0006F0180936E0182E080936C0116C00E94C7
:101DD000260C80916E0190916F01892B71F4109205
:101DE0006C01809177039091780390936F018093B9
:101DF0006E01C11102C00E94050C80E0CF910895D0
:101E00008F929F92AF92BF92CF92DF92EF92FF920A
:101E10000F931F93CF93DF93CDB7DEB7C456D1098D
:101E20000FB6F894DEBF0FBECDBF813009F073C08E
:101E300008EC10E00E945A0C01501109D9F781E01A
:101E40000E94A90C82E591E00E94980DF090890310
:101E50008CE08093890384E190E0909378038093F1
:101E6000770310E098EBC92E9BE0D92E81E00E9409
:101E7000EB0D811104C081E0C81AD1080CC0E1E06B
:101E8000F0E0EC0FFD1FE10FF11D80831F5F88EB79
:101E9000C82E8BE0D82E143618F00E948A0D10E060
:101EA0000E945A0CC114D10409F7112391F1F09248
:101EB00089036F2D70E080EF90E00E948E20709378
:101EC0007803609377031150E12EF12CDE01119617
:101ED0006D01FD01EE0DFF1D10828FE0E9E7F3E0DB
:101EE000DF011D928A95E9F74F0156018A2D8C1961
:101EF000811750F4F50101915F01802F0E94450D7B
:101F0000D4010D934D01F2CFF701E758FC4F118238
:101F100002C00E948A0DCC59DF4F0FB6F894DEBF85
:101F20000FBECDBFDF91CF911F910F91FF90EF902A
:101F3000DF90CF90BF90AF909F908F900C949C0CAF
:101F40004F925F926F927F928F929F92AF92BF92C9
:101F5000CF92DF92EF92FF920F931F93CF93DF9375
:101F6000C82FD62F49015A0167017801CA01B9016A
:101F70000E94631F2B013C01C701B6010E94631F31
:101F80009B01AC01C301B2010E94C21E20E030E0FF
:101F900040E053E40E94F11F0E94341F4D2E512C4B
:101FA000612C712C27E0440C551C661C771C2A956B
:101FB000D1F722E0521A61087108460E571E681EBA
:101FC000791E37E0880C991CAA1CBB1C3A95D1F7E6
:101FD000A70196010E945E20861A970AA80AB90AEC
:101FE0006D2D8C2F0E942A176C2D81E08C0F0E9482
:101FF0002A17D301C20188279927A370BB27BD01E7
:102000008827992782E08C0F0E942A17652D83E08C
:102010008C0F0E942A17642D84E08C0F0E942A17CF
:10202000CC24DD248FE0E822FF245CE0F694E794E2
:10203000D794C7945A95D1F7D501C4018827992719
:10204000AF70BB276C2D6A2B85E08C0F0E942A177E
:10205000692D86E08C0F0E942A17682D87E08C0F6F
:10206000DF91CF911F910F91FF90EF90DF90CF9074
:10207000BF90AF909F908F907F906F905F904F90A8
:102080000C942A17CF92DF92EF92FF92CF93DF93B7
:10209000C82FD22F4450510961097E4F6A017B013C
:1020A00087E0CC0CDD1CEE1CFF1C8A95D1F760E0AC
:1020B0008C2F0E942A1761E081E08C0F0E942A1762
:1020C000D701C60188279927A370BB276D2F6A2BDC
:1020D00082E08C0F0E942A176D2D83E08C0F0E94E6
:1020E0002A176C2D84E08C0F0E942A1760E085E08F
:1020F0008C0F0E942A1760E086E08C0F0E942A173E
:1021000060E087E08C0FDF91CF91FF90EF90DF9040
:10211000CF900C942A171F93CF93DF93C82F162FBD
:102120000E94FC16883051F580EC0E940F17883110
:1021300029F583E00E940F17883201F50E94FC16F2
:102140008031E1F481EC0E940F178034B9F40E94D1
:102150001C17D82F0E94071781E090E001C0880F5C
:10216000CA95EAF7113021F4C82FC095CD2302C0DB
:10217000CD2FC82B0E94FC16883029F0DF91CF911B
:102180001F910C94071780EC0E940F178831B1F74C
:1021900083E00E940F17883289F78C2F0E940F1757
:1021A000EDCF8F929F92AF92BF92CF92DF92EF923C
:1021B000FF920F931F936B017C0160E079EE84EA3C
:1021C00095E3A70196010E94A22049015A0120FF30
:1021D00005C081E0881A9108A108B108A501940101
:1021E000C701B6010E945E2020EC3CEF4BE951E0B4
:1021F0000E94A220D22E0E94631F20EF3FEF4FE7E4
:1022000059E40E94F11F20E63EEF4DEC5BE40E9492
:10221000C21E0E94341F9B01AC01EE24EA94FE2CE6
:102220000FE010E06D2D8AE10E94A00F20E0B501C3
:10223000A4018AE20E94421060EA81EB0E942A1700
:102240006FE480E11F910F91FF90EF90DF90CF90AE
:10225000BF90AF909F908F900C942A178F929F926F
:10226000AF92BF92CF92DF92EF92FF920F931F93A4
:102270006B017C0160E079EE84EA95E3A7019601A9
:102280000E94A22049015A0120FF05C081E0881A5E
:102290009108A108B108A5019401C701B6010E94E7
:1022A0005E2020EC3CEF4BE951E00E94A220D22EB0
:1022B0000E94631F20EF3FEF4FE759E40E94F11F98
:1022C00020E63EEF4DEC5BE40E94C21E0E94341FEC
:1022D0009B01AC01EE24EA94FE2C0FE010E06D2D82
:1022E00082E20E94A00F20E0B501A4018AE30E94CF
:1022F000421060EA81EB0E942A176FE682E11F918B
:102300000F91FF90EF90DF90CF90BF90AF909F9094
:102310008F900C942A178F929F92AF92BF92CF9278
:10232000DF92EF92FF920F931F936B017C0160E0AD
:1023300079EE84EA95E3A70196010E94A220490163
:102340005A0120FF05C081E0881A9108A108B10850
:10235000A5019401C701B6010E945E2020EC3CEF6C
:102360004BE951E00E94A220D22E0E94631F20EF71
:102370003FEF4FE759E40E94F11F20E63EEF4DEC9E
:102380005BE40E94C21E0E94341F9B01AC01EE243C
:10239000EA94FE2C0FE010E06D2D82E20E94A00F67
:1023A00020E0B501A4018AE30E9442106FE682E1B9
:1023B0001F910F91FF90EF90DF90CF90BF90AF9063
:1023C0009F908F900C942A178F929F92AF92BF92FA
:1023D000CF92DF92EF92FF920F931F936B017C01DC
:1023E00060E079EE84EA95E3A70196010E94A220BD
:1023F00049015A0120FF05C081E0881A9108A1080F
:10240000B108A5019401C701B6010E945E2020EC2D
:102410003CEF4BE951E00E94A220D22E0E94631FA4
:1024200020EF3FEF4FE759E40E94F11F20E63EEF17
:102430004DEC5BE40E94C21E0E94341F9B01AC0164
:10244000EE24EA94FE2C0FE010E06D2D8AE10E944C
:10245000A00F20E0B501A4018AE20E9442106FE4BF
:1024600080E11F910F91FF90EF90DF90CF90BF9090
:10247000AF909F908F900C942A1769507E4F20E068
:102480003DE2389FA001399F500D11249FE0920F2B
:10249000DB01FA01E20FF11DEE55F44FE491ED93EB
:1024A0002F5F2913F6CF60587F4F2D3279F70895AB
:1024B000CF93342F20E04F5F5F4FE1E2DC01EA9FD2
:1024C000C001EB9F900D1124A32FB0E04A175B07CA
:1024D000BCF0B695BA2FAA27B795A795A60FB71F38
:1024E000A958BE4FCBE0C20FFC01E20FF11DEA5E1E
:1024F000F54FE491ED932F5F2C13F6CF3F5FE4CFC0
:10250000CF91089525E132E080E094E0980FD90161
:10251000E82FF0E0E751F64FE491ED938F5F8913D8
:10252000F7CF20583F4F8C3081F708954F925F923C
:102530006F927F928F929F92AF92BF92CF92DF92D3
:10254000EF92FF9269017A01DC01CB0122E0B6959E
:10255000A795979587952A95D1F74C015D012AE8B3
:10256000821A22E0920AA108B108C501B40120E84C
:1025700036E948E950E00E94A220DA01C90140E0B2
:1025800050E060E070E00E945812C501B40120E400
:1025900032E44FE050E00E94A2206AE0462E512C27
:1025A000612C712CCA01B901A30192010E94A220E1
:1025B000DC01CB0140E050E06BE070E00E9458127B
:1025C000C501B40120EA36E841E050E00E94A220B3
:1025D000CA01B901A30192010E94A220DC01CB0132
:1025E00040E050E06BE170E00E945812C501B40178
:1025F00020E137E240E050E00E94A220CA01B90188
:10260000A30192010E94A220DC01CB0140E050E036
:1026100066E270E00E945812C501B40128EE33E072
:1026200040E050E00E94A220CA01B901A30192013A
:102630000E94A220DC01CB0140E050E061E370E0A9
:102640000E945812C501B40124E630E040E050E099
:102650000E94A220CA01B901A30192010E94A220F6
:10266000DC01CB0140E050E06CE370E00E945812C6
:10267000C501B401A30192010E94A220CA01B901BF
:10268000A30192010E94A220DC01CB0140E050E0B6
:1026900067E470E00E94581272E0F694E794D794D1
:1026A000C7947A95D1F78AE8C81A82E0D80AE10877
:1026B000F1088C149D04AE04BF0438F442E050E0ED
:1026C0006BE170E08BE090E00BC08C149D04AE04D5
:1026D000BF0441F042E050E06BE170E08AE090E03E
:1026E0000E945812C818D908D7FE03C0D194C194CB
:1026F000D1080D2C000CEE08FF08C701B60128EE2A
:1027000033E040E050E00E94A2208AE0882E912C25
:10271000A12CB12CCA01B901A50194010E94A220EB
:10272000DC01CB0142E050E066E270E00E9458120A
:10273000C701B60124E630E040E050E00E94A2204C
:10274000CA01B901A50194010E94A220DC01CB01BC
:1027500042E050E061E370E00E945812C701B60108
:10276000A50194010E94A2206B017C01CA01B9015C
:10277000A50194010E94A220DC01CB0142E050E0BF
:102780006CE370E00E94581242E050E067E470E0B1
:10279000C601FF90EF90DF90CF90BF90AF909F90D9
:1027A0008F907F906F905F904F900C945812AEE591
:1027B000B3E022E3829FC001112420E030E0FC015D
:1027C000E20FF31FE151F74FE491ED932F5F3F4F7D
:1027D00029313105A1F708954F925F926F927F9250
:1027E0008F929F92AF92BF92CF92DF92EF92FF9221
:1027F000CF93DF93CDB7DEB765970FB6F894DEBF02
:102800000FBECDBF4D8BDC01CB0122E0B695A79565
:10281000979587952A95D1F76C017D012AE8C21A10
:1028200022E0D20AE108F108C701B60120E836E942
:1028300048E950E00E94A22049015A01C701B601AF
:1028400020E432E44FE050E00E94A2206AE0462EED
:10285000512C612C712CCA01B901A30192010E9473
:10286000A22069837A838B839C83C701B60120EA07
:1028700036E841E050E00E94A220CA01B901A3015C
:1028800092010E94A2206D837E838F839887C70167
:10289000B60120E137E240E050E00E94A220CA01E8
:1028A000B901A30192010E94A22069877A878B87D0
:1028B0009C87C701B60128EE33E040E050E00E945B
:1028C000A220CA01B901A30192010E94A2206D8732
:1028D0007E878F87988BC701B60124E630E040E001
:1028E00050E00E94A220CA01B901A30192010E94F6
:1028F000A220698B7A8B8B8B9C8BC701B601A301BD
:1029000092010E94A220CA01B901A30192010E9472
:10291000A2206B017C0160E070E08114910419F445
:102920008BE090E001C0C4010E943D126FE070E0B6
:1029300089819A810E943D1263E270E08D819E81BF
:102940000E943D1262E370E089859A850E943D12E3
:1029500061E470E08D859E850E943D1242E050E06A
:1029600060E570E089899A890E94581242E050E03F
:102970006BE570E0C6010E9458120E9482128D8998
:1029800065960FB6F894DEBF0FBECDBFDF91CF9135
:10299000FF90EF90DF90CF90BF90AF909F908F907F
:1029A0007F906F905F904F900C94D71347EF51E05A
:1029B00020E03BED389FB001399F700D112499E460
:1029C000920FDA01FB01E20FF11DE25AF94FE49197
:1029D000ED932F5F9213F6CF40585F4F292F9B3D09
:1029E00071F7089547EF51E020E036E9389FB001D4
:1029F000399F700D112492E3920FDA01FB01E20F6F
:102A0000F11DE85EFE4FE491ED932F5F9213F6CF38
:102A100040585F4F292F963971F70895ABECB1E01C
:102A200028E5829FC001112420E030E0FC01E20F84
:102A3000F31FEF56F24FE491ED932F5F3F4F2C328F
:102A40003105A1F7ABE4B2E024E530E08897FC0162
:102A5000E20FF31FEF56F24FE491ED932F5F3F4FDC
:102A600020383105A1F70895CF92DF92EF92FF92BF
:102A70000F931F93CF93DF93FC0168EE73E00E94E6
:102A80007A20CB012AE030E0B9010E947A206C0163
:102A9000CF0164E670E00E947A20CB01B9010E9468
:102AA0007A207C01CF01B9010E947A20EC01CB0190
:102AB000B9010E947A208C0160E070E0C114D10459
:102AC00041F48BE090E00E943D12E114F10429F002
:102AD00012C0C6010E943D120EC06FE070E08BE094
:102AE00090E00E943D120115110551F46EE170E075
:102AF0008BE090E008C06FE070E0C7010E943D12DB
:102B00006EE170E0C8010E943D126DE270E0CE01FE
:102B1000DF91CF911F910F91FF90EF90DF90CF90B9
:102B20000C943D1227E731E044E0F90180E090E0A9
:102B30001192019685369105D9F7415020583F4FA3
:102B40004111F3CF0895CF932AE0622F0E946E20A7
:102B5000C92F0E946E206FE070E0892F90E00E94E4
:102B60003D120E94821263E270E08C2F90E00E947E
:102B70003D122CE232E080E090E1980FD901E82F7D
:102B8000F0E0E852FF4FE491ED938F5F9813F7CF99
:102B900020583F4F892F903379F7CF910C94B51679
:102BA0002F9A27E030E090E02F98AC01022E02C06F
:102BB000559547950A94E2F740FF02C02D9A01C04F
:102BC0002D982F9A2150310978F70895CF93C82F67
:102BD0002B9A0E945A0C2B980E945A0C0E945A0C55
:102BE0002B9A2C9A2A982C988EEA0E94D0152C9A0F
:102BF0002C9A2A982C9885ED0E94D0152C9A2C9A04
:102C00002A982C9881E40E94D0152C9A2C9A2A9804
:102C10002C9888EA0E94D0152C9A2C9A2A982C98E5
:102C20008FE10E94D0152C9A2C9A2A982C9883ED2B
:102C30000E94D0152C9A2C9A2A982C9880E00E94F9
:102C4000D0152C9A2C9A2A982C9880E40E94D015A2
:102C50002C9A2C9A2A982C988DE80E94D0152C9AA0
:102C60002C9A2A982C98C13011F480E101C084E19B
:102C70000E94D0152C9A2C9A2A982C9880E20E94B7
:102C8000D0152C9A2C9A2A982C9880E00E94D01566
:102C90002C9A2C9A2A982C9881EA0E94D0152C9A6A
:102CA0002C9A2A982C9888EC0E94D0152C9A2C9A51
:102CB0002A982C988AED0E94D0152C9A2C9A2A9842
:102CC0002C9882E00E94D0152C9A2C9A2A982C9845
:102CD0008FEF0E94D0152C9A2C9A2A982C9880E07D
:102CE0000E94D0152C9A2C9A2A982C9889ED0E9433
:102CF000D0152C9A2C9A2A982C98C13011F482E283
:102D000001C081EF0E94D0152C9A2C9A2A982C98F9
:102D10008BED0E94D0152C9A2C9A2A982C9880E43E
:102D20000E94D0152C9A2C9A2A982C9884EA0E94FA
:102D3000D0152C9A2C9A2A982C9886EA0E94D015A5
:102D40002C9A2C9A2A982C988FEA0E94D0152C9AAB
:102D5000CF91089580E092E0E7E7F1E0DF019C0188
:102D60001D9221503040E1F70895CF93DF932C9AC4
:102D70002A982C9881E20E94D0152C9A2C9A2A9895
:102D80002C9880E00E94D0152C9A2C9A2A982C9886
:102D90008FE70E94D0152C9A2C9A2A982C9882E2C0
:102DA0000E94D0152C9A2C9A2A982C9880E00E9488
:102DB000D0152C9A2C9A2A982C9883E00E94D01532
:102DC0002C9AC7E7D1E02C9A2A9A2C9889910E94D4
:102DD000D0152C9A83E0C737D807A9F7DF91CF9198
:102DE00008958CE08093B8001092B9008FEF809323
:102DF000BB0010926400089584EA8093BC00809127
:102E0000BC0087FFFCCF8091B900887F089584E9DA
:102E10008093BC008091BC0084FDFCCF089580931A
:102E2000BB0084E88093BC008091BC0087FFFCCF8E
:102E30008091B900887F089584E88093BC008091D8
:102E4000BC0087FFFCCF8091BB0008958091B90042
:102E5000887F0895CF93DF93D82FC62F0E94FC164A
:102E6000883099F480EC0E940F17883181F48D2FFF
:102E70000E940F17883269F48C2F0E940F17883236
:102E800051F40E94071780E007C081E005C082E08E
:102E900003C083E001C084E0DF91CF9108951F93C8
:102EA000CF93DF93182FEB010E94FC16883009F5B1
:102EB00080EC0E940F178831F1F4812F0E940F17C8
:102EC0008832D9F40E94FC168031C9F481EC0E944A
:102ED0000F178034B1F484EC8093BC008091BC0067
:102EE00087FFFCCF8091BB0088830E94071780E09A
:102EF00009C081E007C082E005C083E003C084E030
:102F000001C085E0DF91CF911F910895CF93DF93AA
:102F1000CDB7DEB7C056D1090FB6F894DEBF0FBEED
:102F2000CDBF5A985E9A86E191E08093790388E15B
:102F300091E080937A038AE191E080937B038CE1B6
:102F400091E080937C038EE191E080937D0380E2A9
:102F500091E080937E0382E291E080937F0344E1DD
:102F600050E060E070E0CE01855B9F4F0E94F82149
:102F700088E981B98FEF84B99BE397B98AB998EF53
:102F800092B985B988B98BEF8BB98091690080625D
:102F900080936900809168008460809368008091CC
:102FA0006D00806880936D0082E080936E0084BD28
:102FB00016BC83E085BD80E687BD10926F0010923D
:102FC000850010928400809181008B608093810045
:102FD00081E792E09093890080938800289829984F
:102FE00084E190E00E940822853A59F54CE050E0D7
:102FF000BE01655B7F4F89E793E00E942D216B96B0
:103000004FAD6B972B964FAF2B9760E080E00E94FF
:1030100093096C968FAD6C97809389036E968FADF4
:103020006E972A968FAF2A976D968FAD6D972896DB
:103030008FAF28976F968FAD6F9729968FAF29978F
:1030400011C085E02B968FAF2B9790E19093890369
:1030500028961FAE289729968FAF29978AE02A963F
:103060008FAF2A97BE016D5C7F4F2A968FAD2A974E
:103070000E949B0A88EE93E09CAB8BAB109276018A
:103080001092880381E00E94E6150E94AA160E9411
:10309000B51678940E94F1166DA97EA98FA998ADF6
:1030A0000E94D1108DA99EA9AFA9B8AD12E0B69526
:1030B000A795979587951A95D1F7BC01CD016A58C8
:1030C0007240810991090E942E1160E082E00E9405
:1030D0008B100E94B40C08E010E00E9445090150DA
:1030E0001109D9F70E94580904E010E027961FAF94
:1030F0000EAF27970E94580927961FAF0EAF27974C
:103100000E94580927961FAF0EAF27970E945809B3
:1031100027961FAF0EAF279708E010E00E946C09BA
:1031200001501109D9F728968FAD289781112BC02E
:103130000E94AA160E9403096DA97EA98FA998ADC5
:1031400040918A030E94EC130E94B5165E9881E0BC
:103150000E94A90C89E793E00E94980D80E00E94EC
:10316000A90C412C10E078E0E72EF12C6E012FE540
:10317000C20ED11CCE0101965C01E0EF8E2E912C87
:10318000F2E02F2E45C008E010E00E947F090150B8
:103190001109D9F7CDCF21E06212BCC22B964FADF9
:1031A0002B97672D862D0E9493092B968FAF2B9717
:1031B0000E9492152B968FAD2B9790E00E94F214EF
:1031C00018E001E0F1E06F1609F463C37F1609F41B
:1031D00060C321E0521609F45CC331E0331609F4F0
:1031E00058C3013009F45BC388ECE816F10421F4FC
:1031F0000E940309E12CF12C80918A03843009F0AC
:103200008DC381E00E94A90C8CE091E00E94980D92
:10321000809173018111F0CF9FEFE91AF90A111122
:103220000BC08091660190916701019701F5CE0175
:10323000C3960E940F0A1BC01330C8F01630B9F0B5
:10324000059B02C0069913C080E00E94A90C0E9451
:10325000AA166DA97EA98FA998AD40918A030E94F4
:10326000EC130E94B51685E00E94E20C10E020915C
:103270008803213081F480915D0190915E01019776
:1032800090935E0180935D01892B29F4109288034D
:103290002093760115E0329992C3111118C068ECA1
:1032A000662E712C329908C0E1E06E1A71080E94F6
:1032B0005A0C61147104B1F7329BFECF6114710492
:1032C00009F480C3F4EB6F16710430F079C34394B2
:1032D00025E0421275C37BC31F5F312C55245394E4
:1032E0008091660190916701412F50E0019709F0AC
:1032F00097C38091640190916501E0916201F09122
:1033000063018E179F0781F480916401909165019C
:10331000E0916201F0916301772473948E179F0707
:1033200009F0712C612C03C0712C662463941092F7
:10333000670110926601FA013197EB30F10508F050
:10334000A0C2E25CFF4F0C94C42031E063120BC0BA
:1033500089AD9AADABADBCADBC01CD01685D7F4F11
:103360008F4F9F4F0DC081E0781211C089AD9AAD8B
:10337000ABADBCADBC01CD016852710981099109A9
:1033800069AF7AAF8BAF9CAF0E94E41103C091E0AC
:10339000591264C30E94921529AD3AAD4BAD5CAD94
:1033A0006DA97EA98FA998AD0E94961271C2E1E025
:1033B0006E121BC027968EAD9FAD2797099709F413
:1033C00028C35E9A0E9458095E9827968EAD9FADDD
:1033D0002797019627969FAF8EAF27970E94921549
:1033E00027968EAD9FAD279746C2F1E07F1229C385
:1033F00027968EAD9FAD2797892B09F444C25E9A1C
:103400000E9445095E9827968EAD9FAD279701973C
:1034100027969FAF8EAF27970E94921527968EAD65
:103420009FAD27970E94341512E02BC221E062164F
:1034300011F072124DC08BA99CA99695879596950F
:10344000879531E0631212C08233910539F138F467
:103450008130910531F18A309105E9F027C0843639
:10346000910511F18A3F910599F020C082339105B1
:10347000C1F038F481309105B9F08A30910541F0FE
:1034800015C08436910539F08A3F910539F00EC098
:1034900081E090E00BC082E390E008C084E690E019
:1034A00005C08AE090E002C08AEF90E0880F991F83
:1034B000880F991F9CAB8BAB0E9492158BA99CA97E
:1034C00096958795969587950E94341513E0D9C1F6
:1034D00081E03812A2C20E94A90C0E9492158BA909
:1034E0009CA996958795969587950E94341595C2C7
:1034F00091E0691611F079122BC00E94921580E0BC
:1035000090E00E94D614289829980E945A0C289876
:10351000299A0E945A0C289829980E94B80C289A37
:1035200029980E945A0C2898299880E00E94A90C9A
:103530000E94AA166DA97EA98FA998AD40918A0311
:103540000E94EC130E94B51685E00E94E20C71C047
:10355000E1E05E1285C20E94921598C0F1E06F16FC
:1035600041F021E0721629F080917601813009F056
:1035700062C00E9492151092760181E090E00E9454
:10358000D61485E00E940E150E94B51631E0631234
:1035900003C064E271E005C081E0781206C060E318
:1035A00071E080E091E00E94262180E00E94A90C59
:1035B0000E940F0C2BE430E0F60131832083DF9270
:1035C000CF9289E793E09F938F939F938F9380E0AF
:1035D00091E09F938F9323E431E03F932F93BF9229
:1035E000AF920E947821C5010E94980D0E94050C9F
:1035F0000E94AA166DA97EA98FA998AD40918A0351
:103600000E94EC130E94B51629968FAD29970FB62C
:10361000F894DEBF0FBECDBF882359F091E09093A0
:103620008803F8EC8F9FC001112490935E01809372
:103630005D0110E026C121E0521609F48CCF15E09F
:1036400018C231E0631611F073121DC00E9492156A
:1036500082E090E00E94D61486E00E940E150E943F
:10366000B51661E081E00E94000F0E94AA166DA9C4
:103670007EA98FA998AD40918A030E94EC130E9405
:10368000B51610E00CC181E05812ECC180E090E06A
:103690000E94D614FDC091E0691214C060918903A4
:1036A000623380F46F5F6093890370E0C4010E940D
:1036B0008E2070937803609377030E949215809117
:1036C000890380C0E1E07E121AC0609189036B30EB
:1036D000B0F061506093890370E0C4010E948E20B5
:1036E00070937803609377030E9492158091890309
:1036F00090E00E94341517E0AFC1712C612CF1E00D
:103700005F12BCC00E9492158091890390E00E94D4
:103710003415B4C0721609F441CD31E05312A4C17E
:103720000E9492152B968FAD2B9790E037C081E0C9
:10373000681611F0781228C028968FAD289781302E
:1037400059F45E9A18E00E946C091150E1F75E98F6
:1037500028961FAE28970DC081110BC05E9A18E005
:103760000E947F091150E1F75E9881E028968FAFA3
:1037700028970E94921528968FAD289790E003967F
:103780000E94F21419E01DCD91E059126FC10E9400
:10379000921528968FAD289790E003960E94F21418
:1037A00077C0E1E06E1212C029968FAD29978A305A
:1037B00068F48F5F29968FAF29970E9492152996FA
:1037C0008FAD299790E00E94341546C1F1E07F1239
:1037D00015C029968FAD2997882381F081502996AD
:1037E0008FAF29970E94921529968FAD299790E067
:1037F0000E9434151AE030C1712C612C21E0521264
:103800003FC00E94921529968FAD299790E00E94A3
:10381000341536C031E0631611F0731223C02A96B6
:103820008FAD2A978A3041F487E02A968FAF2A9786
:10383000BE016D5C7F4F0AC0873051F49AE02A9632
:103840009FAF2A97BE016D5C7F4F8AE00E949B0A62
:103850000E9492152A968FAD2A9790E00E94341507
:103860001BE0AFCCE1E05E1203C10E9492152A96E4
:103870008FAD2A9790E00E9434150AC017E001C06E
:103880001AE000E09FCCF1E05F1609F4C5CD12E02C
:1038900000E0812F0E940E150E94B516A2CC81E097
:1038A0000E94A90C8EE191E00E94980D80E00E9498
:1038B000A90C65EA84E190E00E9420224FE050E0EC
:1038C00069E773E0CE01855B9F4F0E942D212B9607
:1038D0008FAD2B976B968FAF6B97809189036C960A
:1038E0008FAF6C9728968FAD28976D968FAF6D9799
:1038F0002A968FAD2A976E968FAF6E9729968FADC9
:1039000029976F968FAF6F9744E150E060E070E0C9
:10391000CE01855B9F4F0E94102266CC0E945A0CFC
:1039200080915F01811103C00E94EB0D71CC8091E9
:103930005C018130E1F018F08230C9F169CC059961
:1039400067CC82E390E0909375018093740181E0ED
:10395000809373010E940F0C82E00E94790C1092F8
:10396000880380915C018F5F80935C0151CC059945
:1039700006C082E00E94790C82E390E00EC0809144
:10398000740190917501892B69F081E00E94790C96
:1039900080917401909175010197909375018093C6
:1039A000740136CC81E00E94790C20925C0181E0A8
:1039B0000E94790C0E94050C10925C0129CC412CCC
:1039C000312C03C013E033243394512C89CC1230B2
:1039D00011F01B3089F480E00E94A90C0E94AA1605
:1039E0006DA97EA98FA998AD40918A030E94EC131E
:1039F0000E94B51610E071CC113009F06DCCF8942E
:103A00006DA97EA98FA998AD0E94E411789412E067
:103A100064CC91E079121CC0F2CC00E013E0D9CB69
:103A2000FA013197EB30F10510F000E0D2CBE75B03
:103A3000FF4F0C94C420712C612C03C0712C612C9D
:103A400093CDE1E05E1609F4E7CC00E012E0C5CBCF
:103A500021E052121DCFE0CC01E01BCF11E009C0E4
:103A600014E007C016E005C018E003C019E001C06B
:103A70001BE031E03312B8CB0BCFABE0B0E0E3E4B6
:103A8000FDE10C94D9206C017B013A01FC01178205
:103A90001682838181FF03C1CE0101964C01F6019C
:103AA000B380F701B3FC0591B3FE01917F010023C0
:103AB00009F4F1C0053249F4B3FC0591B3FE01915C
:103AC0007F01053211F010E019C0B601802F90E09F
:103AD0000E943C2153013501E2CF002309F4DBC0F1
:103AE000602F70E088EB91E10E941B21892B49F047
:103AF000F701B3FC0591B3FE01917F0117FFEDCFF4
:103B000004C0033239F00C3619F0011105C0C3C0EE
:103B10001068EECF10E1ECCF602F70E081EB91E107
:103B20000E941B21892B41F05301F4E0AF0EB11C20
:103B3000B6018FE390E010C0033631F0033779F01F
:103B4000033511F511600BC0530182E0A80EB11CC2
:103B5000B601F301808191810E943C21BCCF5301C9
:103B6000F2E0AF0EB11CF30160807180F30110FD33
:103B7000859110FF81913F01882309F4ACCFB601F4
:103B800090E00E943C21F2CF043611F0093621F575
:103B9000530117FF09C0F4E0AF0EB11CF3016081BF
:103BA0007181828193810AC0F2E0AF0EB11CF301F2
:103BB00060817181072E000C880B990B1F7E97FF87
:103BC00008C090958095709561957F4F8F4F9F4F5E
:103BD00010642AE030E030C0003791F040F408353E
:103BE000A1F00F3609F057C028E030E011C00537CA
:103BF00019F0083731F04FC01F7E2AE030E008C0CE
:103C00001061146220E130E003C0146020E132E072
:103C1000530117FF09C0F4E0AF0EB11CF30160813E
:103C200071818281938108C0F2E0AF0EB11CF30173
:103C30006081718180E090E0A4010E949A21082FA8
:103C4000081916FF05C0B6018DE290E00E943C21E4
:103C500014FF15C0FE01E00FF11D8081803379F063
:103C6000B60180E390E00E943C2112FF08C0107270
:103C7000812F90E0B601885A9F4F0E943C2101504D
:103C8000F401E00FF11D8081B60190E00E943C211B
:103C90000111F5CF20CFF6018681978102C08FEF09
:103CA0009FEF2B96EEE00C94F5205058BB27AA27E7
:103CB0000E946D1E0C94B71F0E94A91F38F00E942D
:103CC000B01F20F039F49F3F19F426F40C94A61F7E
:103CD0000EF4E095E7FB0C94A01FE92F0E94C81F8B
:103CE00058F3BA17620773078407950720F079F431
:103CF000A6F50C94EA1F0EF4E0950B2EBA2FA02D1A
:103D00000B01B90190010C01CA01A0011124FF2788
:103D1000591B99F0593F50F4503E68F11A16F04083
:103D2000A22F232F342F4427585FF3CF4695379582
:103D30002795A795F0405395C9F77EF41F16BA0B47
:103D4000620B730B840BBAF09150A1F0FF0FBB1FF5
:103D5000661F771F881FC2F70EC0BA0F621F731F3E
:103D6000841F48F4879577956795B795F7959E3F9B
:103D700008F0B0CF9395880F08F09927EE0F97952C
:103D8000879508950E94D61E0C94B71F0E94B01FFD
:103D900058F00E94A91F40F029F45F3F29F00C94CD
:103DA000A01F51110C94EB1F0C94A61F0E94C81F5A
:103DB00068F39923B1F3552391F3951B550BBB275A
:103DC000AA2762177307840738F09F5F5F4F220F9F
:103DD000331F441FAA1FA9F335D00E2E3AF0E0E896
:103DE00032D091505040E695001CCAF72BD0FE2FE0
:103DF00029D0660F771F881FBB1F26173707480774
:103E0000AB07B0E809F0BB0B802DBF01FF2793582B
:103E10005F4F3AF09E3F510578F00C94A01F0C9430
:103E2000EB1F5F3FE4F3983ED4F386957795679553
:103E3000B795F7959F5FC9F7880F911D9695879560
:103E400097F90895E1E0660F771F881FBB1F62177F
:103E500073078407BA0720F0621B730B840BBA0B3D
:103E6000EE1F88F7E09508950E94D01F88F09F57B5
:103E700098F0B92F9927B751B0F0E1F0660F771F8E
:103E8000881F991F1AF0BA95C9F714C0B13091F084
:103E90000E94EA1FB1E008950C94EA1F672F782F63
:103EA0008827B85F39F0B93FCCF386957795679549
:103EB000B395D9F73EF490958095709561957F4FB5
:103EC0008F4F9F4F0895E89409C097FB3EF490955B
:103ED0008095709561957F4F8F4F9F4F9923A9F0E3
:103EE000F92F96E9BB279395F69587957795679572
:103EF000B795F111F8CFFAF4BB0F11F460FF1BC0B6
:103F00006F5F7F4F8F4F9F4F16C0882311F096E948
:103F100011C0772321F09EE8872F762F05C06623F6
:103F200071F096E8862F70E060E02AF09A95660FAF
:103F3000771F881FDAF7880F9695879597F9089568
:103F400097F99F6780E870E060E008959FEF80EC4C
:103F5000089500240A9416161706180609060895EF
:103F600000240A9412161306140605060895092E55
:103F70000394000C11F4882352F0BB0F40F4BF2BC4
:103F800011F460FF04C06F5F7F4F8F4F9F4F089504
:103F900057FD9058440F551F59F05F3F71F04795FA
:103FA000880F97FB991F61F09F3F79F087950895DF
:103FB000121613061406551FF2CF4695F1DF08C0FE
:103FC000161617061806991FF1CF8695710561051B
:103FD00008940895E894BB2766277727CB0197F9C3
:103FE00008950E9404200C94B71F0E94A91F38F066
:103FF0000E94B01F20F0952311F00C94A01F0C9488
:10400000A61F11240C94EB1F0E94C81F70F3959FEC
:10401000C1F3950F50E0551F629FF001729FBB27BF
:10402000F00DB11D639FAA27F00DB11DAA1F649F5B
:104030006627B00DA11D661F829F2227B00DA11D0E
:10404000621F739FB00DA11D621F839FA00D611D94
:10405000221F749F3327A00D611D231F849F600DB5
:10406000211D822F762F6A2F11249F5750409AF0DE
:10407000F1F088234AF0EE0FFF1FBB1F661F771F6A
:10408000881F91505040A9F79E3F510580F00C9435
:10409000A01F0C94EB1F5F3FE4F3983ED4F386958A
:1040A00077956795B795F795E7959F5FC1F7FE2BD5
:1040B000880F911D9695879597F90895DB018F9349
:1040C0009F930E94CA20BF91AF91A29F800D911D26
:1040D000A39F900DB29F900D11240895991B79E034
:1040E00004C0991F961708F0961B881F7A95C9F788
:1040F00080950895AA1BBB1B51E107C0AA1FBB1FD7
:10410000A617B70710F0A61BB70B881F991F5A9563
:10411000A9F780959095BC01CD01089597FB072ED6
:1041200016F4009407D077FD09D00E947A2007FC8E
:1041300005D03EF4909581959F4F089570956195B7
:104140007F4F0895A1E21A2EAA1BBB1BFD010DC0D3
:10415000AA1FBB1FEE1FFF1FA217B307E407F50737
:1041600020F0A21BB30BE40BF50B661F771F881F13
:10417000991F1A9469F760957095809590959B01A9
:10418000AC01BD01CF010895EE0FFF1F0590F49122
:10419000E02D09940E940C21A59F900DB49F900DD5
:1041A000A49F800D911D112408952F923F924F924C
:1041B0005F926F927F928F929F92AF92BF92CF92B7
:1041C000DF92EF92FF920F931F93CF93DF93CDB7C0
:1041D000DEB7CA1BDB0B0FB6F894DEBF0FBECDBF38
:1041E00009942A88398848885F846E847D848C8409
:1041F0009B84AA84B984C884DF80EE80FD800C8112
:104200001B81AA81B981CE0FD11D0FB6F894DEBFF4
:104210000FBECDBFED010895A29FB001B39FC001B5
:10422000A39F700D811D1124911DB29F700D811DE2
:104230001124911D0895FC010590061621F000201F
:10424000D9F7C00108953197CF010895FB01DC0132
:1042500001900D920020E1F70895FB01DC0141502F
:10426000504048F001900D920020C9F701C01D9206
:1042700041505040E0F708950F931F93CF93DF9381
:10428000FB01238121FD03C08FEF9FEF2CC022FF94
:1042900016C046815781248135814217530744F463
:1042A000A081B1819D012F5F3F4F318320838C938B
:1042B000268137812F5F3F4F3783268314C08B01C0
:1042C000EC01FB010084F185E02D0995892BE1F6D5
:1042D000D80116968D919C911797019617969C93ED
:1042E0008E931697CE01DF91CF911F910F91089574
:1042F000AEE0B0E0EEE7F1E20C94E3200D891E8918
:1043000086E08C831A8309838FEF9FE79E838D83DA
:10431000AE01475E5F4F6F89788DCE0101960E9496
:104320003D1DEF81F885E00FF11F10822E96E4E02D
:104330000C94FF20FA01AA27283051F1203181F195
:10434000E8946F936E7F6E5F7F4F8F4F9F4FAF4F9D
:10435000B1E03ED0B4E03CD0670F781F891F9A1FB0
:10436000A11D680F791F8A1F911DA11D6A0F711D64
:10437000811D911DA11D20D009F468943F912AE070
:10438000269F11243019305D3193DEF6CF01089558
:10439000462F4770405D4193B3E00FD0C9F7F6CF89
:1043A000462F4F70405D4A3318F0495D31FD405251
:1043B000419302D0A9F7EACFB4E0A69597958795E7
:1043C00077956795BA95C9F70097610571050895C6
:1043D0009B01AC010A2E0694579547953795279572
:1043E000BA95C9F7620F731F841F951FA01D08950A
:1043F000DC01CB01FC01F999FECF06C0F2BDE1BDA5
:10440000F89A319600B40D9241505040B8F7089593
:10441000F999FECF92BD81BDF89A992780B508958C
:10442000DC01A40FB51F4150504048F0CB01840F70
:10443000951F2E910E94212241505040D0F708959F
:10444000262FF999FECF92BD81BDF89A019700B44D
:10445000021639F01FBA20BD0FB6F894FA9AF99AED
:084460000FBE0895F894FFCF90
:104468004351204351204351206465002042415468
:10447800204C4F5720004D00350045005600540091
:104488002F005000435120435120435120646500C0
:10449800435120534F544120435120534F544120FE
:1044A8006465002573202573202573202573202536
:0C44B800730065206520652065207400FD
:00000001FF
