:100000000C94D9080C94F6080C94F6080C94F60895
:100010000C94F6080C94F6080C94050B0C94F60856
:100020000C94F6080C94F6080C94F6080C94F60858
:100030000C94F6080C94F6080C94F6080C94F60848
:100040000C94F10A0C94F6080C94F6080C94F6083B
:100050000C94F6080C94F6080C94F6080C94F60828
:100060000C94F6080C94F6080C94F6080C94F60818
:100070000C94F6080C94F6080C94F608A519D719F8
:10008000B618511A871AFA1A241B631B861BC01B49
:10009000F91BC719101D411A811A131D1C1B561B71
:1000A0007C1BB31BEB1B211C3F3D2E23242FFC7C10
:1000B0003C1C0C0484C4E4F46088A8904028D00858
:1000C0002078B048E0A0F068D85010C03018709880
:1000D000B8C8328C5616549400000000000000038B
:1000E00003FFFF00000000000070707000000000BF
:1000F00000FFFF000000000000E0E0E0000000C0A2
:10010000C0FFFFC0C00000000000000000000000B1
:10011000000000000000000000000000008080805F
:1001200080808000000000000080808080808080CF
:1001300080808080000080808080808080808080BF
:10014000800000000000000000000000FCFE07012D
:100150000100000001033FFCF000000000FFFF80F1
:1001600080808080010700000000FFFF8080808089
:1001700080010700000000000000000000000F1FC9
:1001800038606040404060303F0F03000040407FD7
:100190007F60404000000000000040407F7F6040E2
:1001A000400000000000000000000000000000000F
:1001B00000000080808080808000000000000080BF
:1001C000808080000000000000808080808000002F
:1001D000000000000000000000000000000000001F
:1001E0000000FCFE07010100000001033FFCF000DD
:1001F000000000FF0F0F1E78E0C0000001FF0000AC
:1002000000000000000000000000000000000000EE
:10021000000000000F1F38606040404060303F0F1A
:1002200003000040407F7040000001030F1E787FF4
:1002300000000000000000000000000000000000BE
:10024000000000000000808080808080808080002E
:10025000000000008080808080808080808080001E
:10026000000000000000808080808000000000000E
:1002700000000000000000000000FFFF8080808080
:10028000C17F3E0000000000FFFF404040404001B1
:1002900007000000FCFE070101000000010702004A
:1002A0000000000000000000000040407F7F604030
:1002B00001070F3C7860400040407F7F4040404055
:1002C0004040707800000F1F387060604060603000
:1002D000100000000000000000000000808080800E
:1002E000000000000000808080808000000000008E
:1002F00000000000000000000000000000000000FE
:1003000000000000000000000000000000000000ED
:10031000FF0F0F1E78E0C0000001FF00000000008A
:1003200000000000000000000000000000000000CD
:1003300000000000000000000000000000000000BD
:1003400040407F7040000001030F1E787F000000D6
:10035000000000000000000000000000000000009D
:10036000000000000000000000000000000000008D
:1003700000008080808080000000000080800000FD
:1003800000008080808080000000000000000000ED
:10039000000000000000000000000000000000005D
:1003A0000000000000031FFFF0000000E03E073FD8
:1003B000FCC0000080F01F030000000000000000EF
:1003C000000000000000000000000000000000002D
:1003D000000000000000000000011F7F703E0300CD
:1003E0000000033F7C781F010000000000000000B7
:1003F00000000000000000000000000000000000FD
:1004000000000000000000008080808080800000EC
:1004100000000000000080800000000000000000DC
:1004200000000000000000000000000000000000CC
:10043000000000000000000000000000FFFF0100BD
:100440000000000000C0F81E031FFEF08000000046
:10045000000000000000000000000000000000009C
:1004600000000000000000000000000040407F7F0E
:100470006040004040707E474202020202477F7C9B
:1004800060400000000000000000000000000000CC
:10049000000000000000000000000000000080805C
:1004A00080808080000080808080808080808000CC
:1004B000000000000000000000000000000000003C
:1004C000000000000000000000000000000000002C
:1004D0000000FFFF010000000000FFFF404040401F
:1004E000E1BF9F00000000000000000000000000CD
:1004F00000000000000000000000000000000000FC
:10050000000040407F7F6040000040407F7F4040CF
:10051000404040713F1E000000000000000000004D
:1005200000000000000000000000000000000000CB
:1005300000000000000080808080800000000080BB
:10054000808080808080808080808000808080802B
:10055000808080808000000000000000000000001B
:100560000000000000003F7F61E0C0C18307000081
:10057000000701000000FFFF00000001070000006D
:10058000FFFF80808080C17F3E00000000000000EF
:100590000000000000000018386040404061333F18
:1005A0000E000000000040607F7F4040000000001F
:1005B00040407F7F604001070F3C786040000000B2
:1005C000000000000000000000008080808080802B
:1005D000000000808080808000808080808080009B
:1005E000000000000000000000000000000000000B
:1005F0000000000000000000000000000001FFFFFC
:1006000000000000000000FF0100000000FFFF01EB
:1006100000000000000000000000000000000000DA
:1006200000000000000000000000000000000000CA
:100630001F3F706040404060301F00000040407F1E
:100640007F404040404040787C00000000000000B7
:10065000000000000000000000000000000000009A
:10066000808080808080808080000000000080800A
:1006700080808080808080808000000000000000FA
:10068000008080000000000000008080808080806A
:10069000808080800000000080808080808000005A
:1006A0000080808080800000000000FFFF8080804C
:1006B00080C17F3E0000000000FFFF4040404040FE
:1006C00001070000000000C0F81E031FFEF08000BC
:1006D0000000000000FFFF00000000010107FEFC19
:1006E000E00000030F3EF8E080E0380F0301000057
:1006F000000040407F7F604001070F3C7860400071
:1007000040407F7F40404040404070784040707E95
:10071000474202020202477F7C60400040407F7FE8
:10072000404040406060381F0F0100000000404022
:100730007F7F4040000000000000008080808080BB
:1007400080808080000000008080808080800000A9
:100750000000008080808080800000008080808099
:100760008080808080000000000000808080808089
:100770000000000000008080808080800000000079
:10078000000000000000FFFF0000000081FF7E006D
:10079000000000FFFF010000000000000000030F48
:1007A0003EF8E080E0380F0301000000FF0F0F1E4D
:1007B00078E0C0000001FF00000000F8FE07010122
:1007C0000000008183878280000000000040407F9D
:1007D0007F61414101010000000040407F7F4040B7
:1007E00040404040787C00000040407F7F40400017
:1007F00000000040407F7040000001030F1E787F22
:10080000000000000F1F383060404040407F3F3FF5
:100810000000000001008080808080808080800057
:100820000000000080808080808080808080800048
:100830000000000000008080808080000000000038
:1008400000000000000000000000000000000000A8
:100850000000000000000000000000000000000098
:1008600000FFFF80808080C17F3E0000000000FF0D
:10087000FF40404040400107000000FCFE0701012E
:10088000000000010702000000000000000000005E
:100890000000000000000000000000000000000058
:1008A000000000000000000040407F7F6040010722
:1008B0000F3C7860400040407F7F404040404040D7
:1008C000707800000F1F387060604060603010006A
:1008D0000000000000000000000000000000000018
:1008E0000000000000000000000000000000007E8A
:1008F0007EFF81BDBDBDBD81BDBDBDBD81BDBDBDD9
:10090000BD81BDBDBDBD81FF000000000000000035
:1009100000000000000000000000000000000000D7
:10092000007E7EFF818181818181BDBDBDBD81BD94
:10093000BDBDBD81BDBDBDBD81FF0000000000008B
:1009400000000000000000000000000000000000A7
:100950000000007E7EFF8181818181818181818192
:1009600081BDBDBDBD81BDBDBDBD81FF000000001D
:100970000000000000000000000000000000000077
:1009800000000000007E7EFF818181818181818164
:100990008181818181818181BDBDBDBD81FF0000DB
:1009A0000000000000000000000000000000000047
:1009B000000000000000007E7EFF81818181818136
:1009C000818181818181818181818181818181FF99
:1009D0000000000000000000000000000000000017
:1009E0000000000000000000000000000000000007
:1009F0000000C0C0C00000000000000000000000B7
:100A000000000000000000000000000000000000E6
:100A100000000000000000F8FC0606060606FCF8D0
:100A200000007FFFC0C0C0C0C0FF7F00000000000A
:100A3000000000000000000000000000000000FCBA
:100A4000F80000000000000000007F3C00000000F3
:100A50000000000000000000000004060606060674
:100A6000FCF800007EFFC3C3C3C3C3C34100000042
:100A7000000000000000000000000004060606065A
:100A800006FCF800000043C3C3C3C3C37F3C00009F
:100A90000000000000000000000000FCFC0000005E
:100AA0000000FCFC000003030303030303FFFC003E
:100AB000000000000000000000000000F8FC060636
:100AC0000606060604000041C3C3C3C3C3C3FF7EBA
:100AD00000000000000000000000000000F8FC061C
:100AE00006060606040000007FFFC3C3C3C3C3FF9E
:100AF0007E00000000000000000000000000000474
:100B00000606060606FCF8000000000000000000D3
:100B1000FF7C0000000000000000000000000078E2
:100B2000FC0606060606FC7800007BFFC3C3C3C3B1
:100B3000C3FF7B0000000000000000000000000078
:100B4000F8FC0606060606FCF800000041C3C3C315
:100B5000C3C37F3C00000000000000000000000054
:100B60000000000000000000000000030303030376
:100B70000303030303000000000000000000000066
:100B80000000000000F0F000000000000303030379
:100B90003F3F0303030300000000000000000000CB
:100BA000000000FEFF030303030303030303FFFE30
:100BB0000000EFFF000000000000000000FFEF0059
:100BC000007FFFC0C0C0C0C0C0C0C0C0FF7F000069
:100BD0000000000000000000000000FFFE00000018
:100BE00000000000000000000000FFEF0000000017
:100BF000000000000000000000FF7F00000203036F
:100C00000303030303030303FFFE0000E8F81818BF
:100C1000181818181818181F0F00007FFFC0C0C040
:100C2000C0C0C0C0C0C0C040000002030303030333
:100C30000303030303FFFE00000818181818181810
:100C400018181818FFEF000040C0C0C0C0C0C0C0D6
:100C5000C0C0C0FF7F0000FEFF00000000000000D9
:100C60000000FFFE00000F1F181818181818181899
:100C700018FFEF000000000000000000000000006E
:100C8000FF7F0000FEFF03030303030303030303CB
:100C90000000000F1F181818181818181818F8E076
:100CA000000000C0C0C0C0C0C0C0C0C0C0FF7F0046
:100CB00000FEFF0303030303030303030302000017
:100CC000EFFF181818181818181818F8E800007FFF
:100CD000FFC0C0C0C0C0C0C0C0C0FF7F00000203D2
:100CE000030303030303030303FFFE0000000000EC
:100CF0000000000000000000FFEF00000000000006
:100D000000000000000000FF7F0000FEFF0303035F
:100D1000030303030303FFFE0000EFFF1818181876
:100D20001818181818FFEF00007FFFC0C0C0C0C01F
:100D3000C0C0C0C0FF7F0000FEFF03030303030326
:100D4000030303FFFE00000F1F18181818181818C7
:100D50001818FFEF000000C0C0C0C0C0C0C0C0C0B5
:100D6000C0FF7F0000000000000000000000000045
:100D70000000000000000000000000000000000073
:100D80000000000000000000000000000000000063
:100D90000000000000000000000000000000000053
:100DA0000000000000000000000000000000000043
:100DB0000000000000000000000000000000000033
:100DC0000000000000000000000000000000000023
:100DD0000000000000000000000000000000000013
:100DE0000000000000000000000000000000000003
:100DF0000008F88888887830000008F808000008A3
:100E00000808F808081800000000000000000000B2
:100E100000000000008080808080808080888F8833
:100E20008081878C8880888F8880808080888F8868
:100E300080808080808080808080808080808080B2
:100E40008000000000000000000878C80000C838DA
:100E50000800E0F00808080810F0000008F8080092
:100E60000000000000000000000000000080808002
:100E700080808080808080838E8E81808080838748
:100E80008888888884878080888F888888888C80F4
:100E900080808080808080808000000000000000D2
:100EA0000070588888980000080808F8080818009A
:100EB00008F8080808F870000000000000000000B2
:100EC000000000000080808080808080808488888E
:100ED000888D87808080888F88808080888F8989AE
:100EE0008180808080808080808080808080808001
:100EF000800000000000080808F80808180008F83A
:100F000008000000F808000008F83860C00008F881
:100F1000080008F888888808180000000080808091
:100F200080808080888F8880808080878C88888877
:100F300087808080888F88808183868F8080888F5B
:100F4000888888888C80808080000000000008F8F5
:100F500038E0800000E018F8080000001018F800E1
:100F6000000008F888888878300000000000000041
:100F700000000000008080808080888F8880878EBD
:100F80008380888F8880808088888F888080888F01
:100F90008880808080808080808080808080808049
:100FA00080000000000008F838E0800000E018F839
:100FB000080000001018F800000008F888888878F9
:100FC0003000000000000000000000000080808071
:100FD0008080888F8880878E8380888F88808080BB
:100FE00088888F888080888F888081878C8880809F
:100FF00080808080808080808000000000000878F1
:10100000C80000E038E00000C838080008F8080808
:1010100008F8700008F838E0800000E018F80800D0
:10102000000000000080808080808080838E878028
:1010300080818F8E81808080888F89898180808067
:10104000888F8880878E8380888F8880808080804A
:101050008000000008F88880C02018080008F838D0
:10106000E08000006018F8080000E0F008080808B8
:1010700010F0000008F80808080830E000808080C0
:10108000888F898081838E8888888F8880878E83E7
:1010900080888F88808083878888888884878080FC
:1010A000888F88888888868380000000000008F880
:1010B00088888808180008F808000008F808000068
:1010C0000000000000000000000000000000000020
:1010D00000000000008080808080888F8888808069
:1010E0008080888F888080888F888888888C80809E
:1010F00080808080808080808080808080808080F0
:1011000080000000000008F838E08000006018F857
:101110000800000000E01838E000000008F88888A7
:10112000887830000000000000000000008080800F
:101130008080888F8880878E8380888F8880808851
:101140008F818181898F8C88888F888081878C8826
:10115000808080808080808080000000000008F80F
:10116000888888F87000000000E01838E00000006F
:101170000008F83860C00008F808000008F80808FF
:10118000080830E0008080808080888F8888888987
:10119000878080888F818181898F8C8080888F88EB
:1011A000808183868F808080888F888888888683E6
:1011B000800011241FBECFEFD8E0DEBFCDBF11E00D
:1011C000A0E0B1E0EAEFF5E402C005900D92A6358B
:1011D000B107D9F723E0A6E5B1E001C01D92A5381B
:1011E000B207E1F70E947B170C94FB220C940000DD
:1011F00080917A00876080937A0080917C00809350
:101200007C0080917C0080937C0080917C008260D7
:1012100080937C0080917A00806880937A0080912E
:101220007A00806480937A0080917A0086FDFCCFFA
:10123000809178002091790090E0922B853921E00F
:10124000920710F484E010C08A3A21E0920710F46B
:1012500083E00AC0813B21E0920710F482E004C0E1
:101260008F3B914020F481E0809384030895109295
:1012700084030895CF9345980E944F0C43980E9491
:101280004F0CC8E0459A0E944F0C45980E944F0CA5
:10129000C150C1F7439ACF910895CF93459A0E94C8
:1012A0004F0C43980E944F0CC8E0459A0E944F0C87
:1012B00045980E944F0CC150C1F74598439ACF9171
:1012C0000895CF9345980E944F0C44980E944F0C6C
:1012D000C8E0459A0E944F0C45980E944F0CC1509F
:1012E000C1F7449ACF910895CF93459A0E944F0C2D
:1012F00044980E944F0CC8E0459A0E944F0C4598B4
:101300000E944F0CC150C1F7459A449ACF9108955D
:101310001F93CF93DF93182FD62FC42F8130B9F4AA
:10132000463079F048F4453009F069C0109259010F
:1013300080E00E949E0C24C0473089F1483029F19A
:101340005EC081E00E949E0C1093590112C0613072
:1013500081F54630D1F018F4453009F150C04730DE
:1013600051F0483009F04BC081E00E949E0CD093B0
:101370005901C7E044C080E00E949E0C10925901C0
:1013800084E00E94530CC6E03AC01092590180E0FC
:101390000E949E0C80E00E94530CC5E030C0109269
:1013A000590180E00E949E0C88E00E94530CC8E026
:1013B00026C04630E1F048F4453009F51092590155
:1013C00080E00E949E0C80E018C0473049F0483011
:1013D000B1F41092590180E00E949E0C88E00DC08B
:1013E00081E00E949E0C81E08093590108C080E05A
:1013F0000E949E0C1092590184E00E94530C8C2F85
:10140000DF91CF911F910895CF92DF92EF92FF92DB
:10141000FC0140915E0150915F0120915C0130918F
:101420005D0182819381A481B5814217530711F533
:101430004081518160E070E0841B950BA60BB70BD7
:10144000C684D784E088F188C816D906EA06FB0668
:10145000E8F582839383A483B58386819781A085F1
:10146000B185841B950BA60BB70B86839783A0874A
:10147000B1872CC040915E0150915F0120915C01C9
:1014800030915D014217530709F14081518160E0BD
:1014900070E0840F951FA61FB71FC284D384E48415
:1014A000F5848C159D05AE05BF0580F4828393837A
:1014B000A483B58386819781A085B185480F591F84
:1014C0006A1F7B1F4683578360877187C280D380E2
:1014D000E480F580C701B6010E94D911D701C60189
:1014E00022E0B695A795979587952A95D1F7BC01E7
:1014F000CD016A587240810991090E948011409182
:101500008403C701B6010E94E1130E94AA1610923B
:10151000610110926001FF90EF90DF90CF900895ED
:10152000CF93DF93EB018A3021F18E3009F045C073
:101530005B985C985B9A5C980E944F0C5B985C98F7
:1015400088EE90E5AAE5B3E08A839B83AC83BD83F4
:101550008E839F83A887B98788EA92EAACE5B3E0D7
:101560008A879B87AC87BD8788E298E8A6E5B3E0C9
:1015700020C05B985C985B985C9A0E944F0C5B98CB
:101580005C9888EE97E9A9E6B2E08A839B83AC83F6
:10159000BD838E839F83A887B98788EE9BE8ABE6DF
:1015A000B2E08A879B87AC87BD8788EA9EE7A8E67A
:1015B000B2E08E879F87A88BB98B81E090E09093F3
:1015C00061018093600180916001909161010197B8
:1015D00029F4CE01DF91CF910C94040ADF91CF91D1
:1015E00008951F920F920FB60F9211248F938BB113
:1015F00085FB882780F980FF5D9A80FD5D988F913B
:101600000F900FBE0F901F9018951F920F920FB65C
:101610000F9211242F933F938F939F9386B187FB53
:10162000882780F990E090935F0180935E0186B1F6
:1016300086FB222720F930E030935D0120935C0186
:1016400081E090E0909361018093600110928203A9
:101650009F918F913F912F910F900FBE0F901F90F0
:1016600018954F925F926F927F928F929F92AF9256
:10167000BF92CF92DF92EF92FF9210927C00809106
:101680007A00806880937A0080917A0080648093E9
:101690007A0080917A0086FDFCCF80917A00806884
:1016A00080937A0080917A00806480937A008091A0
:1016B0007A0086FDFCCF609178008091790070E01F
:1016C000782B80E090E00E94401E20E030E040EA6D
:1016D00050E40E94CE1E20E030EC4FE754E40E941C
:1016E0009F1D20E030E04AE754E40E94CE1E0E9495
:1016F000111E6B017C0181E080937C0080917A0057
:10170000806880937A0080917A00806480937A0068
:1017100080917A0086FDFCCF80917A00806880936A
:101720007A0080917A00806480937A0080917A00B8
:1017300086FDFCCF8091780090917900682F70E051
:10174000792B80E090E00E94401E20E030E040EAEB
:1017500050E40E94CE1E20E030EC4FE754E40E949B
:101760009F1D4B015C01B60180E090E00E94401E8D
:101770006B017C0120E030E04AE754E4C501B4018C
:101780000E94CE1E0E94111E80E090E00E94401E2A
:101790004B015C019B01AC01C701B6010E94331DE6
:1017A0002B013C01A5019401C701B6010E94321D25
:1017B0009B01AC01C301B2010E949F1D20E030E0FB
:1017C00040E251E40E94CE1E20E030E040E05FE3C2
:1017D0000E94331D0E94111ECB01FF90EF90DF90FD
:1017E000CF90BF90AF909F908F907F906F905F90C1
:1017F0004F90089510926D015E98F89460E082E039
:101800000E9480107894089581E080936D015E9A23
:10181000F89461E082E00E948010789408950E941C
:10182000871584E00E9403150E94310B0C949815D3
:1018300010928203089580916C01807805990AC006
:10184000811102C091E001C092E020916B01922BC6
:1018500090936B0106990AC0811102C082E001C019
:1018600081E090916B01892B80936B0108956091C9
:10187000830370E080EF90E00E946B1F709372030F
:101880006093710380E380936C0180916B018460AD
:1018900080936B0108958091830390E00895B19B3C
:1018A000FECFB19A089590916C01937F892B80931C
:1018B0006C0180916B01846080936B01089590911D
:1018C0006C018923089590916C01892780936C01A4
:1018D00080916B01846080936B010895823071F474
:1018E00090916B0194FD80936E0080916B0185FF58
:1018F00017C080916C0186FF10C011C0813081F447
:1019000080916B0184FD10926E0080916B0185FFC8
:1019100007C080916C0186FF02C05A9A08955A98B8
:10192000089580916C01982F907380916B018F7C4A
:10193000892B80936B0181E00C946E0C882339F025
:1019400080916B018F7C806180936B0108950C9472
:10195000910C0E94370C0C94910C0F931F93CF9312
:10196000DF930E94910C0E94040C82E00E946E0C96
:1019700000ED17E0C0E0D0E0059909C081E00E94C9
:101980006E0CDF91CF911F910F910C94FA0B069B77
:10199000F5CF0E944F0C2196C233D10521F40E944D
:1019A0000F0CC0E0D0E00150110931F7E7CFCF9321
:1019B000DF93C82FCC2351F0D0917103DD2321F0A8
:1019C0000E944F0CD150FACFC150F4CFDF91CF918C
:1019D0000895CF93C82F82E00E946E0CC13021F091
:1019E000C23029F483E001C081E00E94D70C81E07D
:1019F000CF910C946E0C613091F4813031F4809170
:101A00006A01882331F1815007C0823011F580913D
:101A10006A018F3FF1F08F5F80936A011AC0909145
:101A20008303813021F4923348F49F5F05C08230F4
:101A300029F49B3018F091509093830360918303B5
:101A400070E080EF90E00E946B1F709372036093D0
:101A5000710380916B01846080936B0181E00E942F
:101A6000E90C81E00E94D70C82E00E94E90C83E03F
:101A70000C94D70CCF9390ED980F9A3030F4E82F58
:101A8000F0E0E258FF4FC49101C0C0E89FE9980F11
:101A90009A3128F4E82FF0E0E95AFF4FC4919FEB08
:101AA000980F9A3128F4E82FF0E0E958FF4FC491DD
:101AB00020E030E0F901E855FF4FE4918E1304C0B7
:101AC000F901EE52FF4FC4912F5F3F4F2630310591
:101AD00089F7803259F484E00FC0C7FF0AC082E062
:101AE0000E94E90C81E00E94D70CCC0FC038A9F706
:101AF00002C081E0F5CF82E0CF910C94D70CCF9358
:101B0000C8E081E00E94E90C81E00E94D70CC1503E
:101B1000C1F783E0CF910C94D70C0F931F93CF9311
:101B2000DF93FC0101900020E9F73197CE2FC81B0D
:101B3000D82F8C01802F8D1B8C1750F4059B08C06B
:101B4000069B06C0F80181918F010E943A0DF2CFE9
:101B5000DF91CF911F910F9108951F93CF93DF9342
:101B600000D000D01F92CDB7DEB710E02AE030E001
:101B7000009771F0E1E0F0E0EC0FFD1FE10FF11DC7
:101B8000B9010E94571F805D8083CB011F5FF0CF9A
:101B9000112359F01150E1E0F0E0EC0FFD1FE10FCF
:101BA000F11D80810E943A0DF3CF80E20F900F90DB
:101BB0000F900F900F90DF91CF911F910C943A0DE1
:101BC000CF93C82F8091680190916901009729F007
:101BD00001979093690180936801C11102C010922E
:101BE000670180916601813009F4CAC020F082301B
:101BF00009F4E2C0F7C00E941B0C80916C018C704C
:101C0000843049F018F4882331F029C0883071F00D
:101C10008C30E1F024C080916501809590916B013A
:101C2000892380936B011092650119C080916B012B
:101C3000982F9370933039F490916401992361F057
:101C4000909589230AC09093640109C080916B012B
:101C5000982F9370933019F48E7F80936B0180914D
:101C6000680190916901892B09F049C08091630155
:101C7000882309F43CC090916201990F916027E09C
:101C800030E0281B310901C0990F2A95EAF720E0BE
:101C900030E0822FF901E255FF4FE4919E130DC011
:101CA0002A3010F4805D0FC0243210F4895C0BC020
:101CB000F901EC57FF4F849106C02F5F3F4F2A3246
:101CC000310539F780E01092630110926201209192
:101CD000710330917203220F331F220F331F309391
:101CE00069012093680191E0909367017CC0809125
:101CF0006701882321F01092670180E274C09091FF
:101D00006B01892F837009F46DC010926701809177
:101D100063018F5F8093630180916201880F8093DC
:101D20006201209171033091720390FF08C03093DB
:101D300069012093680181E0809365010FC0A901CA
:101D4000440F551F240F351F3093690120936801FC
:101D500092E090936501816080936201C11102C09D
:101D60000E94040C82E00E946E0C80916B018C7FBB
:101D700080936B0181E0809366010E94180C32C051
:101D800080916C018C70843011F40E941B0C809146
:101D9000680190916901892B29F581E00E946E0C00
:101DA000809171039091720390936901809368010F
:101DB00082E08093660116C00E941B0C809168012E
:101DC00090916901892B71F41092660180917103E1
:101DD000909172039093690180936801C11102C0D0
:101DE0000E94FA0B80E0CF9108958F929F92AF925C
:101DF000BF92CF92DF92EF92FF920F931F93CF93F8
:101E0000DF93CDB7DEB7C456D1090FB6F894DEBF65
:101E10000FBECDBF813009F073C008EC10E00E9406
:101E20004F0C01501109D9F781E00E949E0C8BE400
:101E300091E00E948D0DF090830381E180938303F4
:101E40008EE090E0909372038093710310E098EB22
:101E5000C92E9BE0D92E81E00E94E00D811104C0C3
:101E600081E0C81AD1080CC0E1E0F0E0EC0FFD1FE2
:101E7000E10FF11D80831F5F88EBC82E8BE0D82E09
:101E8000143618F00E947F0D10E00E944F0CC11410
:101E9000D10409F7112391F1F09283036F2D70E0C3
:101EA00080EF90E00E946B1F709372036093710348
:101EB0001150E12EF12CDE0111966D01FD01EE0DA8
:101EC000FF1D10828FE0E3E7F3E0DF011D928A95AA
:101ED000E9F74F0156018A2D8C19811750F4F5014D
:101EE00001915F01802F0E943A0DD4010D934D01A5
:101EF000F2CFF701ED58FC4F118202C00E947F0D16
:101F0000CC59DF4F0FB6F894DEBF0FBECDBFDF91C7
:101F1000CF911F910F91FF90EF90DF90CF90BF90E6
:101F2000AF909F908F900C94910C4F925F926F9214
:101F30007F928F929F92AF92BF92CF92DF92EF9259
:101F4000FF920F931F93CF93DF93C82FD62F490192
:101F50005A0167017801CA01B9010E94401E2B0194
:101F60003C01C701B6010E94401E9B01AC01C301A8
:101F7000B2010E949F1D20E030E040E053E40E9447
:101F8000CE1E0E94111E4D2E512C612C712C27E06B
:101F9000440C551C661C771C2A95D1F722E0521A76
:101FA00061087108460E571E681E791E37E0880CBE
:101FB000991CAA1CBB1C3A95D1F7A70196010E9457
:101FC0003B1F861A970AA80AB90A6D2D8C2F0E940A
:101FD0001F176C2D81E08C0F0E941F17D301C201C7
:101FE00088279927A370BB27BD018827992782E0FE
:101FF0008C0F0E941F17652D83E08C0F0E941F1706
:10200000642D84E08C0F0E941F17CC24DD248FE008
:10201000E822FF245CE0F694E794D794C7945A959D
:10202000D1F7D501C40188279927AF70BB276C2D44
:102030006A2B85E08C0F0E941F17692D86E08C0F9C
:102040000E941F17682D87E08C0FDF91CF911F91A1
:102050000F91FF90EF90DF90CF90BF90AF909F9047
:102060008F907F906F905F904F900C941F17CF923E
:10207000DF92EF92FF92CF93DF93C82FD22F44507D
:10208000510961097E4F6A017B0187E0CC0CDD1CA0
:10209000EE1CFF1C8A95D1F760E08C2F0E941F1761
:1020A00061E081E08C0F0E941F17D701C6018827CD
:1020B0009927A370BB276D2F6A2B82E08C0F0E949B
:1020C0001F176D2D83E08C0F0E941F176C2D84E06D
:1020D0008C0F0E941F1760E085E08C0F0E941F1775
:1020E00060E086E08C0F0E941F1760E087E08C0F95
:1020F000DF91CF91FF90EF90DF90CF900C941F175E
:102100001F93CF93DF93C82F162F0E94F1168830AC
:1021100051F58EED0E940417883129F583E00E9465
:102120000417883201F50E94F1168031E1F48FED39
:102130000E9404178034B9F40E941117D82F0E940E
:10214000FC1681E090E001C0880FCA95EAF71130D3
:1021500021F4C82FC095CD2302C0CD2FC82B0E94DB
:10216000F116883029F0DF91CF911F910C94FC1665
:102170008EED0E9404178831B1F783E00E940417A6
:10218000883289F78C2F0E940417EDCF8F929F928F
:10219000AF92BF92CF92DF92EF92FF920F931F9375
:1021A0006B017C0160E079EE84EA95E3A70196017A
:1021B0000E947F1F49015A0120FF05C081E0881A53
:1021C0009108A108B108A5019401C701B6010E94B8
:1021D0003B1F20EC3CEF4BE951E00E947F1FD22EC9
:1021E0000E94401E20EF3FEF4FE759E40E94CE1EB1
:1021F00020E63EEF4DEC5BE40E949F1D0E94111E05
:102200009B01AC01EE24EA94FE2C0FE010E06D2D52
:102210008AE10E94950F20E0B501A4018AE20E94A4
:10222000371060EA81EB0E941F176FE480E11F9175
:102230000F91FF90EF90DF90CF90BF90AF909F9065
:102240008F900C941F178F929F92AF92BF92CF9254
:10225000DF92EF92FF920F931F936B017C0160E07E
:1022600079EE84EA95E3A70196010E947F1F490158
:102270005A0120FF05C081E0881A9108A108B10821
:10228000A5019401C701B6010E943B1F20EC3CEF61
:102290004BE951E00E947F1FD22E0E94401E20EF8A
:1022A0003FEF4FE759E40E94CE1E20E63EEF4DEC93
:1022B0005BE40E949F1D0E94111E9B01AC01EE2455
:1022C000EA94FE2C0FE010E06D2D82E20E94950F43
:1022D00020E0B501A4018AE30E94371060EA81EB97
:1022E0000E941F176FE682E11F910F91FF90EF9000
:1022F000DF90CF90BF90AF909F908F900C941F175E
:102300008F929F92AF92BF92CF92DF92EF92FF9205
:102310000F931F936B017C0160E079EE84EA95E3F3
:10232000A70196010E947F1F49015A0120FF05C0A5
:1023300081E0881A9108A108B108A5019401C7019C
:10234000B6010E943B1F20EC3CEF4BE951E00E949C
:102350007F1FD22E0E94401E20EF3FEF4FE759E42F
:102360000E94CE1E20E63EEF4DEC5BE40E949F1DD6
:102370000E94111E9B01AC01EE24EA94FE2C0FE09A
:1023800010E06D2D82E20E94950F20E0B501A401BE
:102390008AE30E9437106FE682E11F910F91FF9050
:1023A000EF90DF90CF90BF90AF909F908F900C9464
:1023B0001F178F929F92AF92BF92CF92DF92EF92B0
:1023C000FF920F931F936B017C0160E079EE84EA2A
:1023D00095E3A70196010E947F1F49015A0120FF42
:1023E00005C081E0881A9108A108B108A5019401EF
:1023F000C701B6010E943B1F20EC3CEF4BE951E0C6
:102400000E947F1FD22E0E94401E20EF3FEF4FE719
:1024100059E40E94CE1E20E63EEF4DEC5BE40E94A4
:102420009F1D0E94111E9B01AC01EE24EA94FE2C1C
:102430000FE010E06D2D8AE10E94950F20E0B501BC
:10244000A4018AE20E9437106FE480E11F910F918E
:10245000FF90EF90DF90CF90BF90AF909F908F90C4
:102460000C941F176F507E4F20E03DE2389FA00173
:10247000399F500D11249FE0920FDB01FA01E20F0A
:10248000F11DEE55F44FE491ED932F5F2913F6CF34
:1024900060587F4F2D3279F70895CF93342F20E085
:1024A0004F5F5F4FE1E2DC01EA9FC001EB9F900DBF
:1024B0001124A32FB0E04A175B07BCF0B695BA2FE2
:1024C000AA27B795A795A60FB71FAF58BE4FCBE069
:1024D000C20FFC01E20FF11DEA5EF54FE491ED93AE
:1024E0002F5F2C13F6CF3F5FE4CFCF9108952FE0FD
:1024F00032E080E094E0980FD901E82FF0E0E75156
:10250000F64FE491ED938F5F8913F7CF20583F4F3B
:102510008C3081F708954F925F926F927F928F92E5
:102520009F92AF92BF92CF92DF92EF92FF9269019A
:102530007A01DC01CB0122E0B695A79597958795A6
:102540002A95D1F74C015D012AE8821A22E0920A0D
:10255000A108B108C501B40120E836E948E950E016
:102560000E947F1FDA01C90140E050E060E070E0A6
:102570000E944D12C501B40120E432E44FE050E066
:102580000E947F1F6AE0462E512C612C712CCA01DB
:10259000B901A30192010E947F1FDC01CB0140E041
:1025A00050E06BE070E00E944D12C501B40120EADA
:1025B00036E841E050E00E947F1FCA01B901A30143
:1025C00092010E947F1FDC01CB0140E050E06BE1F3
:1025D00070E00E944D12C501B40120E137E240E0F5
:1025E00050E00E947F1FCA01B901A30192010E941D
:1025F0007F1FDC01CB0140E050E066E270E00E940A
:102600004D12C501B40128EE33E040E050E00E94D5
:102610007F1FCA01B901A30192010E947F1FDC0143
:10262000CB0140E050E061E370E00E944D12C50133
:10263000B40124E630E040E050E00E947F1FCA0170
:10264000B901A30192010E947F1FDC01CB0140E090
:1026500050E06CE370E00E944D12C501B401A3018B
:1026600092010E947F1FCA01B901A30192010E9439
:102670007F1FDC01CB0140E050E067E470E00E9486
:102680004D1272E0F694E794D794C7947A95D1F7F7
:102690008AE8C81A82E0D80AE108F1088C149D047F
:1026A000AE04BF0438F442E050E06BE170E08BE030
:1026B00090E00BC08C149D04AE04BF0441F042E0D6
:1026C00050E06BE170E08AE090E00E944D12C81883
:1026D000D908D7FE03C0D194C194D1080D2C000CA9
:1026E000EE08FF08C701B60128EE33E040E050E0F5
:1026F0000E947F1F8AE0882E912CA12CB12CCA0148
:10270000B901A50194010E947F1FDC01CB0142E0C9
:1027100050E066E270E00E944D12C701B60124E667
:1027200030E040E050E00E947F1FCA01B901A501DE
:1027300094010E947F1FDC01CB0142E050E061E385
:1027400070E00E944D12C701B601A50194010E94DC
:102750007F1F6B017C01CA01B901A50194010E9490
:102760007F1FDC01CB0142E050E06CE370E00E948F
:102770004D1242E050E067E470E0C601FF90EF9038
:10278000DF90CF90BF90AF909F908F907F906F9091
:102790005F904F900C944D12A8E5B3E022E3829F26
:1027A000C001112420E030E0FC01E20FF31FE151F1
:1027B000F74FE491ED932F5F3F4F29313105A1F79A
:1027C00008954F925F926F927F928F929F92AF92F5
:1027D000BF92CF92DF92EF92FF92CF93DF93CDB76C
:1027E000DEB765970FB6F894DEBF0FBECDBF4D8B39
:1027F000DC01CB0122E0B695A795979587952A95A0
:10280000D1F76C017D012AE8C21A22E0D20AE10860
:10281000F108C701B60120E836E948E950E00E9416
:102820007F1F49015A01C701B60120E432E44FE09D
:1028300050E00E947F1F6AE0462E512C612C712CC3
:10284000CA01B901A30192010E947F1F69837A83A3
:102850008B839C83C701B60120EA36E841E050E053
:102860000E947F1FCA01B901A30192010E947F1F2C
:102870006D837E838F839887C701B60120E137E29D
:1028800040E050E00E947F1FCA01B901A3019201FC
:102890000E947F1F69877A878B879C87C701B60153
:1028A00028EE33E040E050E00E947F1FCA01B901EA
:1028B000A30192010E947F1F6D877E878F87988B6F
:1028C000C701B60124E630E040E050E00E947F1FDF
:1028D000CA01B901A30192010E947F1F698B7A8B03
:1028E0008B8B9C8BC701B601A30192010E947F1FB5
:1028F000CA01B901A30192010E947F1F6B017C01F3
:1029000060E070E08114910419F48BE090E001C064
:10291000C4010E9432126FE070E089819A810E94A6
:10292000321263E270E08D819E810E94321262E376
:1029300070E089859A850E94321261E470E08D858D
:102940009E850E94321242E050E060E570E0898985
:102950009A890E944D1242E050E06BE570E0C6019A
:102960000E944D120E9477128D8965960FB6F894D9
:10297000DEBF0FBECDBFDF91CF91FF90EF90DF9014
:10298000CF90BF90AF909F908F907F906F905F900F
:102990004F900C94CC1341EF51E020E03BED389F79
:1029A000B001399F700D112499E4920FDA01FB01F7
:1029B000E20FF11DE25AF94FE491ED932F5F92136C
:1029C000F6CF40585F4F292F9B3D71F7089541EF97
:1029D00051E020E036E9389FB001399F700D112495
:1029E00092E3920FDA01FB01E20FF11DE85EFE4F68
:1029F000E491ED932F5F9213F6CF40585F4F292F4C
:102A0000963971F70895A5ECB1E028E5829FC001E1
:102A1000112420E030E0FC01E20FF31FEF56F24FEB
:102A2000E491ED932F5F3F4F2C323105A1F7A5E4E0
:102A3000B2E024E530E08897FC01E20FF31FEF5687
:102A4000F24FE491ED932F5F3F4F20383105A1F70E
:102A50000895CF92DF92EF92FF920F931F93CF933F
:102A6000DF93FC0168EE73E00E94571FCB012AE060
:102A700030E0B9010E94571F6C01CF0164E670E09D
:102A80000E94571FCB01B9010E94571F7C01CF0143
:102A9000B9010E94571FEC01CB01B9010E94571FD9
:102AA0008C0160E070E0C114D10441F48BE090E04F
:102AB0000E943212E114F10429F012C0C6010E94F2
:102AC00032120EC06FE070E08BE090E00E94321294
:102AD0000115110551F46EE170E08BE090E008C043
:102AE0006FE070E0C7010E9432126EE170E0C80131
:102AF0000E9432126DE270E0CE01DF91CF911F9102
:102B00000F91FF90EF90DF90CF900C94321221E75D
:102B100031E044E0F90180E090E0119201968536C1
:102B20009105D9F7415020583F4F4111F3CF0895F7
:102B3000CF932AE0622F0E944B1FC92F0E944B1F88
:102B40006FE070E0892F90E00E9432120E947712AD
:102B500063E270E08C2F90E00E94321226E232E0B5
:102B600080E090E1980FD901E82FF0E0E852FF4FA4
:102B7000E491ED938F5F9813F7CF20583F4F892F43
:102B8000903379F7CF910C94AA162F9A27E030E072
:102B900090E02F98AC01022E02C0559547950A94FB
:102BA000E2F740FF02C02D9A01C02D982F9A2150C4
:102BB000310978F70895CF93C82F2B9A0E944F0CB4
:102BC0002B980E944F0C0E944F0C2B9A2C9A2A98FB
:102BD0002C988EEA0E94C5152C9A2C9A2A982C982B
:102BE00085ED0E94C5152C9A2C9A2A982C9881E480
:102BF0000E94C5152C9A2C9A2A982C9888EA0E9433
:102C0000C5152C9A2C9A2A982C988FE10E94C515EC
:102C10002C9A2C9A2A982C9883ED0E94C5152C9AF0
:102C20002C9A2A982C9880E00E94C5152C9A2C9AF0
:102C30002A982C9880E40E94C5152C9A2C9A2A98E0
:102C40002C988DE80E94C5152C9A2C9A2A982C98BD
:102C5000C13011F480E101C084E10E94C5152C9AB5
:102C60002C9A2A982C9880E20E94C5152C9A2C9AAE
:102C70002A982C9880E00E94C5152C9A2C9A2A98A4
:102C80002C9881EA0E94C5152C9A2C9A2A982C9887
:102C900088EC0E94C5152C9A2C9A2A982C988AEDBB
:102CA0000E94C5152C9A2C9A2A982C9882E00E9492
:102CB000C5152C9A2C9A2A982C988FEF0E94C5152E
:102CC0002C9A2C9A2A982C9880E00E94C5152C9A50
:102CD0002C9A2A982C9889ED0E94C5152C9A2C9A2A
:102CE0002A982C98C13011F482E201C081EF0E9431
:102CF000C5152C9A2C9A2A982C988BED0E94C515F4
:102D00002C9A2C9A2A982C9880E40E94C5152C9A0B
:102D10002C9A2A982C9884EA0E94C5152C9A2C9AF1
:102D20002A982C9886EA0E94C5152C9A2C9A2A98E3
:102D30002C988FEA0E94C5152C9ACF91089580E0B7
:102D400092E0E1E7F1E0DF019C011D92215030406B
:102D5000E1F70895CF93DF932C9A2A982C9881E27B
:102D60000E94C5152C9A2C9A2A982C9880E00E94D3
:102D7000C5152C9A2C9A2A982C988FE70E94C51575
:102D80002C9A2C9A2A982C9882E20E94C5152C9A8B
:102D90002C9A2A982C9880E00E94C5152C9A2C9A7F
:102DA0002A982C9883E00E94C5152C9AC1E7D1E09F
:102DB0002C9A2A9A2C9889910E94C5152C9A83E006
:102DC000C137D807A9F7DF91CF9108958CE08093A0
:102DD000B8001092B9008FEF8093BB00109264008E
:102DE000089584EA8093BC008091BC0087FFFCCFEB
:102DF0008091B900887F089584E98093BC00809118
:102E0000BC0084FDFCCF08958093BB0084E88093D0
:102E1000BC008091BC0087FFFCCF8091B900887F07
:102E2000089584E88093BC008091BC0087FFFCCFAC
:102E30008091BB0008958091B900887F0895CF9359
:102E4000DF93D82FC62F0E94F116883099F48EEDAB
:102E50000E940417883181F48D2F0E940417883254
:102E600069F48C2F0E940417883251F40E94FC16DA
:102E700080E007C081E005C082E003C083E001C0BC
:102E800084E0DF91CF9108951F93CF93DF93182FA4
:102E9000EB010E94F116883009F58EED0E940417AF
:102EA0008831F1F4812F0E9404178832D9F40E94EE
:102EB000F1168031C9F48FED0E9404178034B1F40B
:102EC00084EC8093BC008091BC0087FFFCCF809194
:102ED000BB0088830E94FC1680E009C081E007C027
:102EE00082E005C083E003C084E001C085E0DF919B
:102EF000CF911F910895CF93DF93CDB7DEB7C25620
:102F0000D1090FB6F894DEBF0FBECDBF5A985E9AB6
:102F10006CE071E083E793E00E94C11F46E150E05E
:102F200060E070E0CE01855B9F4F0E948A2288E9B5
:102F300081B98FEF84B99BE397B98AB998EF92B9B9
:102F400085B988B98BEF8BB98091690080628093D5
:102F500069008091680084608093680080916D00B2
:102F6000806880936D0082E080936E0084BD16BC03
:102F700083E085BD80E687BD10926F0010928500CA
:102F800010928400809181008B608093810081E7A2
:102F900092E09093890080938800289829980E9455
:102FA0004F0C289A29980E944F0C2898299886E15E
:102FB00090E00E949A22853A79F54CE050E0BE01FB
:102FC000655B7F4F83E793E00E94C81F6B964FAD10
:102FD0006B972B964FAF2B9760E080E00E9488099B
:102FE0006C968FAD6C97809383036E968FAD6E97C2
:102FF0002A968FAF2A976D968FAD6D9728968FAFD3
:1030000028976F968FAD6F9729968FAF2997A196C6
:103010008EAD9FADA19713C085E02B968FAF2B97F8
:1030200092E19093830328961FAE289729968FAF3D
:1030300029978AE02A968FAF2A9788EE93E09CAB77
:103040008BABBE016D5C7F4F2A968FAD2A970E9495
:10305000900A109270011092820381E00E94DB15A9
:103060000E949F160E94AA1678940E94E6166DA9E7
:103070007EA98FA998AD0E94C6108DA99EA9AFA95F
:10308000B8AD12E0B695A795979587951A95D1F7A3
:10309000BC01CD016A587240810991090E94231137
:1030A00060E082E00E9480100E94A90C08E010E01D
:1030B0000E943A0901501109D9F70E944D0904E014
:1030C00010E027961FAF0EAF27970E944D09279655
:1030D0001FAF0EAF27970E944D0927961FAF0EAF67
:1030E00027970E944D0927961FAF0EAF279708E03C
:1030F00010E00E94610901501109D9F728968FAD9F
:10310000289781112BC00E949F160E94F8086DA974
:103110007EA98FA998AD409184030E94E1130E947B
:10312000AA165E9881E00E949E0C83E793E00E94BD
:103130008D0D80E00E949E0C412C10E078E0E72E7F
:10314000F12C6E0121E6C20ED11CCE0101965C016C
:10315000E0EF8E2E912CF2E02F2E5AC008E010E006
:103160000E94740901501109D9F7CDCF21E06212F4
:103170005DC18BA99CA9969587959695879531E019
:1031800063125EC18233910509F472C108F051C126
:103190008130910509F46FC18A30910509F465C148
:1031A000880F991F880F991F9CAB8BAB0E948715C6
:1031B0008BA99CA996958795969587950E94291528
:1031C00013E001E0F1E06F1609F452C37F1609F431
:1031D0004FC321E0521609F44BC331E0331609F412
:1031E00047C3013009F44AC388ECE816F10421F41E
:1031F0000E94F808E12CF12C80918403843009F0BE
:1032000082C381E00E949E0C81E491E00E948D0DBA
:1032100080916D018111F0CF9FEFE91AF90A111128
:103220000BC08091600190916101019701F5CE0181
:10323000C3960E94040A1BC01330C8F01630B9F0C0
:10324000059B02C0069913C080E00E949E0C0E945C
:103250009F166DA97EA98FA998AD409184030E9405
:10326000E1130E94AA1685E00E94D70C10E020917D
:103270008203213081F48091570190915801019788
:103280009093580180935701892B29F4109282035F
:103290002093700115E0329987C3111118C068ECB2
:1032A000662E712C329908C0E1E06E1A71080E94F6
:1032B0004F0C61147104B1F7329BFECF611471049D
:1032C00009F475C3F4EB6F16710430F06EC34394C8
:1032D00025E042126AC370C31F5F312C55245394FA
:1032E0008091600190916101412F50E0019709F0B8
:1032F0008CC380915E0190915F01E0915C01F0913F
:103300005D018E179F0781F480915E0190915F01AE
:10331000E0915C01F0915D01772473948E179F0713
:1033200009F0712C612C03C0712C662463941092F7
:10333000610110926001FA013197EB30F10508F05C
:103340008FC2E25CFF4F0C94A11F31E063120BC0EF
:1033500089AD9AADABADBCADBC01CD01685D7F4F11
:103360008F4F9F4F0DC081E0781211C089AD9AAD8B
:10337000ABADBCADBC01CD016852710981099109A9
:1033800069AF7AAF8BAF9CAF0E94D91103C091E0B7
:10339000591259C30E94871529AD3AAD4BAD5CADAA
:1033A0006DA97EA98FA998AD0E948B1260C2E1E041
:1033B0006E121BC027968EAD9FAD2797099709F413
:1033C0001DC35E9A0E944D095E9827968EAD9FADF3
:1033D0002797019627969FAF8EAF27970E94871554
:1033E00027968EAD9FAD279735C2F1E07F121EC3A1
:1033F00027968EAD9FAD2797892B09F433C25E9A2D
:103400000E943A095E9827968EAD9FAD2797019747
:1034100027969FAF8EAF27970E94871527968EAD70
:103420009FAD27970E94291512E01AC2721229C077
:10343000A0CE8436910511F18A3F910599F0B0CE66
:1034400082339105C1F038F481309105B9F08A30AA
:10345000910541F0A5CE8436910539F08A3F91055A
:1034600039F09ECE81E090E09BCE82E390E098CE52
:1034700084E690E095CE8AE090E092CE8AEF90E0EC
:103480008FCE81E03812BEC20E949E0C0E9487152A
:103490008BA99CA996958795969587950E94291545
:1034A000B1C291E0691611F079122BC00E94871504
:1034B00080E090E00E94CB14289829980E944F0C3D
:1034C0002898299A0E944F0C289829980E94AD0CA0
:1034D000289A29980E944F0C2898299880E00E94E9
:1034E0009E0C0E949F166DA97EA98FA998AD409150
:1034F00084030E94E1130E94AA1685E00E94D70C63
:1035000071C0E1E05E12A1C20E94871598C0F1E08F
:103510006F1641F021E0721629F080917001813020
:1035200009F062C00E9487151092700181E090E05E
:103530000E94CB1485E00E9403150E94AA1631E078
:10354000631203C064E171E005C081E0781206C037
:1035500060E271E080E091E00E94C11F80E00E9483
:103560009E0C0E94040C2BE430E0F6013183208392
:10357000DF92CF9283E793E09F938F939F938F93F4
:1035800080E091E09F938F9323E331E03F932F936B
:10359000BF92AF920E94D71FC5010E948D0D0E945D
:1035A000FA0B0E949F166DA97EA98FA998AD409134
:1035B00084030E94E1130E94AA1629968FAD2997D1
:1035C0000FB6F894DEBF0FBECDBF882359F091E04F
:1035D00090938203F8EC8F9FC001112490935801BF
:1035E0008093570110E03CC121E0521609F48CCFC2
:1035F00015E034C231E0631611F073121DC00E9451
:10360000871582E090E00E94CB1486E00E940315AB
:103610000E94AA1661E081E00E94F50E0E949F16AA
:103620006DA97EA98FA998AD409184030E94E113F2
:103630000E94AA1610E022C181E0581208C280E060
:1036400090E00E94CB1413C191E0691214C0609104
:103650008303623380F46F5F6093830370E0C4017F
:103660000E946B1F70937203609371030E94871511
:103670008091830396C0E1E07E121AC060918303BB
:103680006B30B0F061506093830370E0C4010E941E
:103690006B1F70937203609371030E948715809172
:1036A000830390E00E94291517E0CBC1712C612C97
:1036B000F1E05F12D2C00E9487158091830390E0F1
:1036C0000E942915CAC021E0621611F0721214C0BE
:1036D0002B964FAD2B97672D862D0E9488092B9630
:1036E0008FAF2B970E9487152B968FAD2B9790E06D
:1036F0000E94E71418E065CD31E05312AAC10E9480
:1037000087152B968FAD2B9790E037C081E0681618
:1037100011F0781228C028968FAD2897813059F47F
:103720005E9A18E00E9461091150E1F75E982896B0
:103730001FAE28970DC081110BC05E9A18E00E9441
:1037400074091150E1F75E9881E028968FAF2897B1
:103750000E94871528968FAD289790E003960E94C7
:10376000E71419E02ECD91E0591275C10E9487151A
:1037700028968FAD289790E003960E94E71477C0B3
:10378000E1E06E1212C029968FAD29978A3068F455
:103790008F5F29968FAF29970E94871529968FAD45
:1037A000299790E00E9429154CC1F1E07F1215C0C5
:1037B00029968FAD2997882381F0815029968FAF64
:1037C00029970E94871529968FAD299790E00E942E
:1037D00029151AE036C1712C612C21E052123FC02C
:1037E0000E94871529968FAD299790E00E94291590
:1037F00036C031E0631611F0731223C02A968FADE4
:103800002A978A3041F48EE02A968FAF2A97BE011C
:103810006D5C7F4F0AC08E3051F49AE02A969FAFBC
:103820002A97BE016D5C7F4F8AE00E94900A0E9439
:1038300087152A968FAD2A9790E00E9429151BE0E4
:10384000C0CCE1E05E1209C10E9487152A968FADB7
:103850002A9790E00E9429150AC017E001C01AE0DB
:1038600000E0B0CCF1E05F1609F4D6CD12E000E044
:10387000812F0E9403150E94AA16B3CC81E00E94FA
:103880009E0C8FE391E00E948D0D80E00E949E0CC3
:1038900065EA86E190E00E94B2224FE050E063E7E3
:1038A00073E0CE01855B9F4F0E94C81F2B968FADA2
:1038B0002B976B968FAF6B97809183036C968FAF2E
:1038C0006C9728968FAD28976D968FAF6D972A9637
:1038D0008FAD2A976E968FAF6E9729968FAD2997E9
:1038E0006F968FAF6F978BA99CA9A1969FAF8EAF54
:1038F000A19746E150E060E070E0CE01855B9F4F0C
:103900000E94A22271CC0E944F0C8091590181111A
:1039100003C00E94E00D7CCC809156018130E1F023
:1039200018F08230C9F174CC059972CC82E390E032
:1039300090936F0180936E0181E080936D010E94EE
:10394000040C82E00E946E0C10928203809156015A
:103950008F5F809356015CCC059906C082E00E947F
:103960006E0C82E390E00EC080916E0190916F0129
:10397000892B69F081E00E946E0C80916E0190911C
:103980006F01019790936F0180936E0141CC81E0AC
:103990000E946E0C2092560181E00E946E0C0E94E3
:1039A000FA0B1092560134CC412C312C03C013E099
:1039B00033243394512C94CC123011F01B3089F401
:1039C00080E00E949E0C0E949F166DA97EA98FA97F
:1039D00098AD409184030E94E1130E94AA1610E062
:1039E0007CCC113009F078CCF8946DA97EA98FA910
:1039F00098AD0E94D911789412E06FCC91E07912C1
:103A00001CC0FDCC00E013E0E4CBFA013197EB30B1
:103A1000F10510F000E0DDCBE75BFF4F0C94A11F38
:103A2000712C612C03C0712C612C77CDE1E05E1606
:103A300009F4F2CC00E012E0D0CB21E0521217CF13
:103A4000EBCC01E015CF11E009C014E007C016E08F
:103A500005C018E003C019E001C01BE031E03312DB
:103A6000C3CB05CF5058BB27AA270E944A1D0C94F0
:103A7000941E0E94861E38F00E948D1E20F039F49C
:103A80009F3F19F426F40C94831E0EF4E095E7FB97
:103A90000C947D1EE92F0E94A51E58F3BA176207E9
:103AA00073078407950720F079F4A6F50C94C71ED8
:103AB0000EF4E0950B2EBA2FA02D0B01B901900149
:103AC0000C01CA01A0011124FF27591B99F0593F8D
:103AD00050F4503E68F11A16F040A22F232F342FD5
:103AE0004427585FF3CF469537952795A795F04023
:103AF0005395C9F77EF41F16BA0B620B730B840B38
:103B0000BAF09150A1F0FF0FBB1F661F771F881FEF
:103B1000C2F70EC0BA0F621F731F841F48F4879547
:103B200077956795B795F7959E3F08F0B0CF939539
:103B3000880F08F09927EE0F9795879508950E94B2
:103B4000B31D0C94941E0E948D1E58F00E94861E78
:103B500040F029F45F3F29F00C947D1E51110C9424
:103B6000C81E0C94831E0E94A51E68F39923B1F30E
:103B7000552391F3951B550BBB27AA276217730793
:103B8000840738F09F5F5F4F220F331F441FAA1F27
:103B9000A9F335D00E2E3AF0E0E832D091505040E3
:103BA000E695001CCAF72BD0FE2F29D0660F771F91
:103BB000881FBB1F261737074807AB07B0E809F077
:103BC000BB0B802DBF01FF2793585F4F3AF09E3FFC
:103BD000510578F00C947D1E0C94C81E5F3FE4F3F1
:103BE000983ED4F3869577956795B795F7959F5F3F
:103BF000C9F7880F911D9695879597F90895E1E08B
:103C0000660F771F881FBB1F621773078407BA07E9
:103C100020F0621B730B840BBA0BEE1F88F7E09544
:103C200008950E94AD1E88F09F5798F0B92F9927EC
:103C3000B751B0F0E1F0660F771F881F991F1AF097
:103C4000BA95C9F714C0B13091F00E94C71EB1E017
:103C500008950C94C71E672F782F8827B85F39F016
:103C6000B93FCCF3869577956795B395D9F73EF430
:103C700090958095709561957F4F8F4F9F4F0895D8
:103C8000E89409C097FB3EF49095809570956195F6
:103C90007F4F8F4F9F4F9923A9F0F92F96E9BB27AC
:103CA0009395F695879577956795B795F111F8CF28
:103CB000FAF4BB0F11F460FF1BC06F5F7F4F8F4F93
:103CC0009F4F16C0882311F096E911C0772321F089
:103CD0009EE8872F762F05C0662371F096E8862F21
:103CE00070E060E02AF09A95660F771F881FDAF778
:103CF000880F9695879597F9089597F99F6780E8BB
:103D000070E060E008959FEF80EC089500240A942D
:103D10001616170618060906089500240A941216A6
:103D20001306140605060895092E0394000C11F4D9
:103D3000882352F0BB0F40F4BF2B11F460FF04C086
:103D40006F5F7F4F8F4F9F4F089557FD9058440FDF
:103D5000551F59F05F3F71F04795880F97FB991FEA
:103D600061F09F3F79F087950895121613061406A7
:103D7000551FF2CF4695F1DF08C016161706180634
:103D8000991FF1CF86957105610508940895E8940F
:103D9000BB2766277727CB0197F908950E94E11E7C
:103DA0000C94941E0E94861E38F00E948D1E20F0F6
:103DB000952311F00C947D1E0C94831E11240C94F9
:103DC000C81E0E94A51E70F3959FC1F3950F50E089
:103DD000551F629FF001729FBB27F00DB11D639FBD
:103DE000AA27F00DB11DAA1F649F6627B00DA11D63
:103DF000661F829F2227B00DA11D621F739FB00D09
:103E0000A11D621F839FA00D611D221F749F332778
:103E1000A00D611D231F849F600D211D822F762F11
:103E20006A2F11249F5750409AF0F1F088234AF0EE
:103E3000EE0FFF1FBB1F661F771F881F915050405A
:103E4000A9F79E3F510580F00C947D1E0C94C81E6E
:103E50005F3FE4F3983ED4F3869577956795B795E1
:103E6000F795E7959F5FC1F7FE2B880F911D9695FB
:103E7000879597F90895DB018F939F930E94A71F61
:103E8000BF91AF91A29F800D911DA39F900DB29FF6
:103E9000900D11240895991B79E004C0991F96177D
:103EA00008F0961B881F7A95C9F780950895AA1B7C
:103EB000BB1B51E107C0AA1FBB1FA617B70710F015
:103EC000A61BB70B881F991F5A95A9F78095909547
:103ED000BC01CD01089597FB072E16F4009407D07E
:103EE00077FD09D00E94571F07FC05D03EF490953E
:103EF00081959F4F0895709561957F4F0895A1E238
:103F00001A2EAA1BBB1BFD010DC0AA1FBB1FEE1F53
:103F1000FF1FA217B307E407F50720F0A21BB30B9E
:103F2000E40BF50B661F771F881F991F1A9469F71A
:103F300060957095809590959B01AC01BD01CF0176
:103F40000895EE0FFF1F0590F491E02D09940E9453
:103F5000B21FA59F900DB49F900DA49F800D911D41
:103F600011240895A29FB001B39FC001A39F700DBB
:103F7000811D1124911DB29F700D811D1124911D71
:103F80000895FB01DC0101900D920020E1F70895F6
:103F9000FB01DC014150504048F001900D9200209F
:103FA000C9F701C01D9241505040E0F70895AEE0BE
:103FB000B0E0EDEDFFE10C94D2220D891E8986E080
:103FC0008C831A8309838FEF9FE79E838D83AE01D5
:103FD000475E5F4F6F89788DCE0101960E94F91F71
:103FE000EF81F885E00FF11F10822E96E4E00C942B
:103FF000EE22ABE0B0E0EFEFFFE10C94C4226C01E5
:104000007B018A01FC0117821682838181FFCCC16A
:10401000CE0101963C01F6019381F70193FD859154
:1040200093FF81917F01882309F4BAC1853239F465
:1040300093FD859193FF81917F01853229F4B6012B
:1040400090E00E94F021E7CF912C212C312CFFE150
:10405000F315D8F08B3279F038F4803279F083326E
:10406000A1F4232D20611DC08D3261F0803369F4ED
:10407000232D216016C0832D8260382EE32DE4604D
:104080003E2E2AC0F32DF8601DC037FC2DC020ED58
:10409000280F2A3040F08E32B9F436FC81C1232D2E
:1040A0002064322E19C036FE06C08AE0989E200D8C
:1040B0001124922E11C0EAE02E9E200D1124222EF2
:1040C000F32DF0623F2E08C08C3621F4832D8068DA
:1040D000382E02C0883641F4F70193FD859193FF95
:1040E00081917F018111B3CF982F9F7D955493309B
:1040F00028F40C5F1F4F9FE399830DC0833631F086
:10410000833771F0833509F059C021C0F8018081EF
:1041100089830E5F1F4F88248394912C530113C011
:104120002801F2E04F0E511CF801A080B18036FE4C
:1041300003C0692D70E002C06FEF7FEFC5010E94E0
:10414000E5214C018201F32DFF773F2E16C0280197
:1041500022E0420E511CF801A080B18036FE03C05F
:10416000692D70E002C06FEF7FEFC5010E94DA2178
:104170004C01F32DF0683F2E820133FC1BC0822DD1
:1041800090E088169906B0F4B60180E290E00E94B3
:10419000F0212A94F4CFF50137FC859137FE819107
:1041A0005F01B60190E00E94F02121102A9421E0E5
:1041B000821A91088114910471F7E8C0843611F0D5
:1041C000893641F5F80137FE07C06081718182812F
:1041D00093810C5F1F4F08C060817181072E000C16
:1041E000880B990B0E5F1F4FF32DFF763F2E97FF25
:1041F00009C090958095709561957F4F8F4F9F4F27
:10420000F0683F2E2AE030E0A3010E942C22882E85
:10421000861845C0853731F4232D2F7EB22E2AE033
:1042200030E025C0932D997FB92E8F36C1F018F458
:10423000883579F0B5C0803719F0883721F0B0C0E3
:10424000E92FE061BE2EB4FE0DC0FB2DF460BF2E41
:1042500009C034FE0AC0292F2660B22E06C028E00D
:1042600030E005C020E130E002C020E132E0F8019A
:10427000B7FE07C060817181828193810C5F1F4FFF
:1042800006C06081718180E090E00E5F1F4FA30146
:104290000E942C22882E8618FB2DFF773F2E36FE9B
:1042A0000DC0232D2E7FA22E891458F434FE0BC08E
:1042B00032FC09C0832D8E7EA82E05C0B82CA32CFD
:1042C00003C0B82C01C0B92CA4FE0FC0FE01E80D3C
:1042D000F11D8081803321F49A2D997EA92E09C089
:1042E000A2FE06C0B394B39404C08A2D867809F068
:1042F000B394A3FC11C0A0FE06C0B21488F4280C2D
:10430000922C9B180EC0B21460F4B60180E290E0CB
:104310000E94F021B394F7CFB21418F42B1802C006
:10432000982C212CA4FE10C0B60180E390E00E94DE
:10433000F021A2FE17C0A1FC03C088E790E002C0F4
:1043400088E590E0B6010CC08A2D867859F0A1FE70
:1043500002C08BE201C080E2A7FC8DE2B60190E0D2
:104360000E94F021891438F4B60180E390E00E94A5
:10437000F0219A94F7CF8A94F301E80DF11D808122
:10438000B60190E00E94F0218110F5CF222009F4BF
:1043900042CEB60180E290E00E94F0212A94F6CF4E
:1043A000F6018681978102C08FEF9FEF2B96E2E1A5
:1043B0000C94E022FC010590615070400110D8F788
:1043C000809590958E0F9F1F0895FC01615070405D
:1043D00001900110D8F7809590958E0F9F1F08953A
:1043E0000F931F93CF93DF93FB01238121FD03C024
:1043F0008FEF9FEF2CC022FF16C04681578124818A
:1044000035814217530744F4A081B1819D012F5F8C
:104410003F4F318320838C93268137812F5F3F4F1D
:104420003783268314C08B01EC01FB010084F185E6
:10443000E02D0995892BE1F6D80116968D919C9176
:104440001797019617969C938E931697CE01DF913E
:10445000CF911F910F910895FA01AA27283051F1A9
:10446000203181F1E8946F936E7F6E5F7F4F8F4FA5
:104470009F4FAF4FB1E03ED0B4E03CD0670F781F04
:10448000891F9A1FA11D680F791F8A1F911DA11DE9
:104490006A0F711D811D911DA11D20D009F4689422
:1044A0003F912AE0269F11243019305D3193DEF6CA
:1044B000CF010895462F4770405D4193B3E00FD080
:1044C000C9F7F6CF462F4F70405D4A3318F0495D6B
:1044D00031FD4052419302D0A9F7EACFB4E0A6954E
:1044E0009795879577956795BA95C9F70097610570
:1044F000710508959B01AC010A2E069457954795C6
:1045000037952795BA95C9F7620F731F841F951FBA
:10451000A01D0895DC01CB01FC01F999FECF06C076
:10452000F2BDE1BDF89A319600B40D924150504071
:10453000B8F70895F999FECF92BD81BDF89A9927F1
:1045400080B50895DC01A40FB51F4150504048F0DC
:10455000CB01840F951F2E910E94B32241505040F1
:10456000D0F70895262FF999FECF92BD81BDF89A14
:10457000019700B4021639F01FBA20BD0FB6F894A7
:10458000FA9AF99A0FBE08952F923F924F925F9236
:104590006F927F928F929F92AF92BF92CF92DF9253
:1045A000EF92FF920F931F93CF93DF93CDB7DEB7B8
:1045B000CA1BDB0B0FB6F894DEBF0FBECDBF09944C
:1045C0002A88398848885F846E847D848C849B84A3
:1045D000AA84B984C884DF80EE80FD800C811B81B1
:1045E000AA81B981CE0FD11D0FB6F894DEBF0FBEE0
:0A45F000CDBFED010895F894FFCF50
:1045FA004351204351204351206465004D354556AF
:10460A00542F5000435120435120435120646500E8
:10461A00435120534F544120435120534F5441207A
:10462A0064650025732025732025732025730054A3
:10463A000020424154204C4F5720006520652065D8
:06464A0020652074000051
:00000001FF
