:100000000C94DE080C94FB080C94FB080C94FB0881
:100010000C94FB080C94FB080C940A0B0C94FB0842
:100020000C94FB080C94FB080C94FB080C94FB0844
:100030000C94FB080C94FB080C94FB080C94FB0834
:100040000C94F60A0C94FB080C94FB080C94FB0827
:100050000C94FB080C94FB080C94FB080C94FB0814
:100060000C94FB080C94FB080C94FB080C94FB0804
:100070000C94FB080C94FB080C94FB089119C31911
:10008000021A641A9A1A0D1B371BB718831BBD1B63
:10009000F61BB319071D541A941A0A1D2F1B691B4E
:1000A000791BB01BE81B1E1C20424154204C4F57AB
:1000B00020003F3D2E23242FFC7C3C1C0C0484C4D8
:1000C000E4F46088A8904028D0082078B048E0A0E8
:1000D000F068D85010C030187098B8C8328C5616D6
:1000E0005494000000000000000303FFFF00000024
:1000F0000000007070700000000000FFFF000000B2
:10010000000000E0E0E0000000C0C0FFFFC0C00051
:1001100000000000000000000000000000000000DF
:1001200000000000000000808080808080000000CF
:10013000000000808080808080808080808000003F
:10014000808080808080808080808000000000002F
:10015000000000000000FCFE070101000000010398
:100160003FFCF000000000FFFF80808080800107DE
:1001700000000000FFFF80808080800107000000F9
:1001800000000000000000000F1F38606040404089
:1001900060303F0F03000040407F7F604040000020
:1001A0000000000040407F7F6040400000000000F1
:1001B00000000000000000000000000000808080BF
:1001C00080808000000000000080808080000000AF
:1001D000000000808080808000000000000000009F
:1001E000000000000000000000000000FCFE07010D
:1001F0000100000001033FFCF000000000FF0F0FB2
:100200001E78E0C0000001FF0000000000000000B8
:1002100000000000000000000000000000000F1FB0
:1002200038606040404060303F0F03000040407F36
:100230007040000001030F1E787F000000000000E6
:1002400000000000000000000000000000000000AE
:10025000808080808080808080000000000080801E
:10026000808080808080808080000000000000000E
:1002700080808080800000000000000000000000FE
:1002800000000000FFFF80808080C17F3E000000F2
:100290000000FFFF40404040400107000000FCFE1E
:1002A000070101000000010702000000000000003B
:1002B0000000000040407F7F604001070F3C7860F5
:1002C000400040407F7F4040404040407078000008
:1002D0000F1F387060604060603010000000000048
:1002E000000000000000808080800000000000000E
:1002F000808080808000000000000000000000007E
:1003000000000000000000000000000000000000ED
:1003100000000000000000000000FF0F0F1E78E04A
:10032000C0000001FF00000000000000000000000D
:1003300000000000000000000000000000000000BD
:100340000000000000000000000040407F704000FE
:100350000001030F1E787F00000000000000000075
:10036000000000000000000000000000000000008D
:10037000000000000000000000000000808080807D
:1003800080000000000080800000000080808080ED
:1003900080000000000000000000000000000000DD
:1003A000000000000000000000000000000000034A
:1003B0001FFFF0000000E03E073FFCC0000080F09F
:1003C0001F0300000000000000000000000000000B
:1003D000000000000000000000000000000000001D
:1003E000000000011F7F703E03000000033F7C7887
:1003F0001F010000000000000000000000000000DD
:1004000000000000000000000000000000000000EC
:1004100000008080808080800000000000000000DC
:1004200080800000000000000000000000000000CC
:1004300000000000000000000000000000000000BC
:10044000000000000000FFFF01000000000000C0ED
:10045000F81E031FFEF080000000000000000000F6
:10046000000000000000000000000000000000008C
:1004700000000000000040407F7F6040004040706E
:100480007E474202020202477F7C6040000000007B
:10049000000000000000000000000000000000005C
:1004A000000000000000000080808080808000004C
:1004B00080808080808080808000000000000000BC
:1004C000000000000000000000000000000000002C
:1004D000000000000000000000000000FFFF01001D
:1004E00000000000FFFF40404040E1BF9F000000CF
:1004F00000000000000000000000000000000000FC
:1005000000000000000000000000000040407F7F6D
:100510006040000040407F7F4040404040713F1EAF
:1005200000000000000000000000000000000000CB
:1005300000000000000000000000000000000000BB
:1005400080808080800000000080808080808080AB
:10055000808080808000808080808080808080009B
:10056000000000000000000000000000000000008B
:100570003F7F61E0C0C18307000000070100000069
:10058000FFFF0000000107000000FFFF8080808067
:10059000C17F3E00000000000000000000000000DD
:1005A0000018386040404061333F0E0000000000FA
:1005B00040607F7F40400000000040407F7F6040FF
:1005C00001070F3C786040000000000000000000C0
:1005D000000000008080808080800000008080809B
:1005E000808000808080808080000000000000000B
:1005F00000000000000000000000000000000000FB
:100600000000000000000001FFFF000000000000EB
:1006100000FF0100000000FFFF01000000000000DB
:1006200000000000000000000000000000000000CA
:10063000000000000000000000001F3F706040400C
:100640004060301F00000040407F7F4040404040FD
:1006500040787C0000000000000000000000000066
:10066000000000000000000000008080808080808A
:1006700080808000000000008080808080808080FA
:1006800080808000000000000000008080000000EA
:10069000000000008080808080808080808000005A
:1006A00000008080808080800000008080808080CA
:1006B0000000000000FFFF80808080C17F3E0000BE
:1006C000000000FFFF4040404040010700000000E4
:1006D00000C0F81E031FFEF080000000000000FFB5
:1006E000FF00000000010107FEFCE00000030F3ED8
:1006F000F8E080E0380F03010000000040407F7FF9
:10070000604001070F3C7860400040407F7F4040E0
:100710004040404070784040707E474202020202F2
:10072000477F7C60400040407F7F404040406060A9
:10073000381F0F010000000040407F7F4040000054
:100740000000000000808080808080808080000029
:100750000000808080808080000000000080808019
:100760008080800000008080808080808080800089
:1007700000000000008080808080000000000000F9
:100780008080808080800000000000000000000069
:10079000FFFF0000000081FF7E00000000FFFF015E
:1007A0000000000000000000030F3EF8E080E03889
:1007B0000F0301000000FF0F0F1E78E0C0000001D2
:1007C000FF00000000F8FE070101000000818387A0
:1007D0008280000000000040407F7F6141410101B4
:1007E0000000000040407F7F404040404040787C17
:1007F00000000040407F7F40400000000040407FFC
:100800007040000001030F1E787F000000000F1FE2
:10081000383060404040407F3F3F00000000010012
:100820008080808080808080800000000000808048
:100830008080808080808080800000000000000038
:100840008080808080000000000000000000000028
:100850000000000000000000000000000000000098
:100860000000000000000000000000FFFF8080800A
:1008700080C17F3E0000000000FFFF40404040403C
:100880000107000000FCFE07010100000001070253
:100890000000000000000000000000000000000058
:1008A0000000000000000000000000000000000048
:1008B000000040407F7F604001070F3C78604000AF
:1008C00040407F7F404040404040707800000F1F14
:1008D0003870606040606030100000000000000070
:1008E0000000000000000000000000000000000008
:1008F0000000000000000000007E7EFF81BDBDBD45
:10090000BD81BDBDBDBD81BDBDBDBD81BDBDBDBDCB
:1009100081FF000000000000000000000000000057
:1009200000000000000000000000007E7EFF8181CA
:1009300081818181BDBDBDBD81BDBDBDBD81BDBD4F
:10094000BDBD81FF000000000000000000000000AD
:10095000000000000000000000000000007E7EFF9C
:100960008181818181818181818181BDBDBDBD8187
:10097000BDBDBDBD81FF0000000000000000000003
:100980000000000000000000000000000000007EE9
:100990007EFF8181818181818181818181818181CC
:1009A0008181BDBDBDBD81FF0000000000000000D1
:1009B0000000000000000000000000000000000037
:1009C000007E7EFF81818181818181818181818120
:1009D000818181818181818181FF0000000000008F
:1009E0000000000000000000000000000000000007
:1009F000000000000000000000000000C0C0C000B7
:100A000000000000000000000000000000000000E6
:100A100000000000000000000000000000000000D6
:100A200000F8FC0606060606FCF800007FFFC0C0C2
:100A3000C0C0C0FF7F0000000000000000000000F8
:100A4000000000000000000000FCF80000000000B2
:100A5000000000007F3C00000000000000000000DB
:100A600000000000040606060606FCF800007EFFF3
:100A7000C3C3C3C3C3C341000000000000000000A3
:100A80000000000000040606060606FCF800000050
:100A900043C3C3C3C3C37F3C000000000000000089
:100AA0000000000000FCFC0000000000FCFC000056
:100AB00003030303030303FFFC0000000000000026
:100AC000000000000000F8FC06060606060604000A
:100AD0000041C3C3C3C3C3C3FF7E000000000000C6
:100AE00000000000000000F8FC06060606060400F0
:100AF00000007FFFC3C3C3C3C3FF7E00000000002C
:100B0000000000000000000000040606060606FCC7
:100B1000F8000000000000000000FF7C0000000062
:100B200000000000000000000078FC060606060633
:100B3000FC7800007BFFC3C3C3C3C3FF7B0000007E
:100B400000000000000000000000F8FC0606060699
:100B500006FCF800000041C3C3C3C3C37F3C0000D0
:100B60000000000000000000000000000000000085
:100B70000000000000030303030303030303030057
:100B8000000000000000000000000000000000F075
:100B9000F00000000000030303033F3F03030303CF
:100BA00000000000000000000000000000FEFF0345
:100BB0000303030303030303FFFE0000EFFF000032
:100BC00000000000000000FFEF00007FFFC0C0C079
:100BD000C0C0C0C0C0C0FF7F000000000000000017
:100BE0000000000000FFFE00000000000000000008
:100BF00000000000FFEF0000000000000000000007
:100C0000000000FF7F00000203030303030303034C
:100C10000303FFFE0000E8F8181818181818181831
:100C2000181F0F00007FFFC0C0C0C0C0C0C0C0C040
:100C3000C04000000203030303030303030303FF95
:100C4000FE00000818181818181818181818FFEFC0
:100C5000000040C0C0C0C0C0C0C0C0C0C0FF7F0056
:100C600000FEFF000000000000000000FFFE00008A
:100C70000F1F181818181818181818FFEF00000080
:100C800000000000000000000000FF7F0000FEFFE9
:100C9000030303030303030303030000000F1F18F0
:100CA0001818181818181818F8E0000000C0C0C06C
:100CB000C0C0C0C0C0C0C0FF7F0000FEFF03030370
:100CC00003030303030303020000EFFF18181818BF
:100CD0001818181818F8E800007FFFC0C0C0C0C07E
:100CE000C0C0C0C0FF7F000002030303030303036F
:100CF000030303FFFE0000000000000000000000EE
:100D00000000FFEF000000000000000000000000F5
:100D100000FF7F0000FEFF0303030303030303033D
:100D2000FFFE0000EFFF181818181818181818FF01
:100D3000EF00007FFFC0C0C0C0C0C0C0C0C0FF7F08
:100D40000000FEFF030303030303030303FFFE008E
:100D5000000F1F181818181818181818FFEF00009F
:100D600000C0C0C0C0C0C0C0C0C0C0FF7F00000085
:100D70000000000000000000000000000000000073
:100D80000000000000000000000000000000000063
:100D90000000000000000000000000000000000053
:100DA0000000000000000000000000000000000043
:100DB0000000000000000000000000000000000033
:100DC0000000000000000000000000000000000023
:100DD0000000000000000000000000000000000013
:100DE0000000000000000000000000000000000003
:100DF000000000000000000000000008F88888885B
:100E00007830000008F8080000080808F8080818FA
:100E10000000000000000000000000000000008052
:100E200080808080808080888F888081878C888087
:100E3000888F8880808080888F8880808080808074
:100E40008080808080808080808080000000000022
:100E50000000000878C80000C8380800E0F0080862
:100E6000080810F0000008F808000000000000006A
:100E700000000000000000808080808080808080F2
:100E800080838E8E8180808083878888888884870D
:100E90008080888F888888888C808080808080800F
:100EA0008080800000000000000000705888889852
:100EB0000000080808F80808180008F8080808F8EA
:100EC0007000000000000000000000000000008032
:100ED00080808080808080848888888D87808080E2
:100EE000888F88808080888F8989818080808080B9
:100EF0008080808080808080808080000000000072
:100F0000080808F80808180008F808000000F808A1
:100F1000000008F83860C00008F8080008F8888861
:100F20008808180000000080808080808080888F82
:100F30008880808080878C88888887808080888F60
:100F400088808183868F8080888F888888888C803D
:100F5000808080000000000008F838E0800000E099
:100F600018F8080000001018F800000008F8888839
:100F700088783000000000000000000000000080C1
:100F800080808080888F8880878E8380888F88800B
:100F9000808088888F888080888F8880808080800B
:100FA00080808080808080808080800000000000C1
:100FB00008F838E0800000E018F808000000101879
:100FC000F800000008F888888878300000000000E9
:100FD000000000000000008080808080888F888072
:100FE000878E8380888F8880808088888F888080A3
:100FF000888F888081878C888080808080808080B6
:1010000080808000000000000878C80000E038E020
:101010000000C838080008F8080808F8700008F848
:1010200038E0800000E018F80800000000000080B0
:10103000808080808080838E878080818F8E818079
:101040008080888F898981808080888F8880878E42
:101050008380888F8880808080808000000008F8EE
:101060008880C02018080008F838E0800000601868
:10107000F8080000E0F00808080810F0000008F880
:101080000808080830E000808080888F898081838C
:101090008E8888888F8880878E8380888F888080DC
:1010A00083878888888884878080888F88888888D4
:1010B000868380000000000008F8888888081800EF
:1010C00008F808000008F808000000000000000010
:1010D0000000000000000000000000000000008090
:1010E00080808080888F888880808080888F8880BA
:1010F00080888F888888888C8080808080808080AD
:10110000808080808080808080808000000000005F
:1011100008F838E08000006018F80800000000E0DF
:101120001838E000000008F888888878300000004F
:10113000000000000000008080808080888F888010
:10114000878E8380888F888080888F818181898F36
:101150008C88888F888081878C8880808080808040
:10116000808080000000000008F8888888F87000FF
:10117000000000E01838E00000000008F83860C007
:101180000008F808000008F80808080830E00080A7
:1011900080808080888F88888889878080888F81F8
:1011A0008181898F8C8080888F88808183868F80E1
:1011B0008080888F888888888683800011241FBE5D
:1011C000CFEFD8E0DEBFCDBF11E0A0E0B1E0E8EEA8
:1011D000F5E402C005900D92AC34B107D9F723E0D5
:1011E000ACE4B1E001C01D92AB37B207E1F70E9459
:1011F00080170C94F2220C94000080917A00876092
:1012000080937A0080917C0080937C0080917C00A8
:1012100080937C0080917C00826080937C00809130
:101220007A00806880937A0080917A00806480934D
:101230007A0080917A0086FDFCCF80917800209121
:10124000790090E0922B853921E0920710F484E038
:1012500010C08A3A21E0920710F483E00AC0813B73
:1012600021E0920710F482E004C08F3B914020F40B
:1012700081E080937A03089510927A030895CF93C2
:1012800045980E94540C43980E94540CC8E0459A1B
:101290000E94540C45980E94540CC150C1F7439AC7
:1012A000CF910895CF93459A0E94540C43980E9481
:1012B000540CC8E0459A0E94540C45980E94540C66
:1012C000C150C1F74598439ACF910895CF9345985F
:1012D0000E94540C44980E94540CC8E0459A0E9405
:1012E000540C45980E94540CC150C1F7449ACF91B8
:1012F0000895CF93459A0E94540C44980E94540C30
:10130000C8E0459A0E94540C45980E94540CC15064
:10131000C1F7459A449ACF9108951F93CF93DF93D5
:10132000182FD62FC42F8130B9F4463079F048F405
:10133000453009F069C010924F0180E00E94A30C73
:1013400024C0473089F1483029F15EC081E00E9415
:10135000A30C10934F0112C0613081F54630D1F0DB
:1013600018F4453009F150C0473051F0483009F0C9
:101370004BC081E00E94A30CD0934F01C7E044C052
:1013800080E00E94A30C10924F0184E00E94580C50
:10139000C6E03AC010924F0180E00E94A30C80E0AA
:1013A0000E94580CC5E030C010924F0180E00E94AE
:1013B000A30C88E00E94580CC8E026C04630E1F03B
:1013C00048F4453009F510924F0180E00E94A30CCB
:1013D00080E018C0473049F04830B1F410924F0116
:1013E00080E00E94A30C88E00DC081E00E94A30C65
:1013F00081E080934F0108C080E00E94A30C10920E
:101400004F0184E00E94580C8C2FDF91CF911F91E7
:101410000895CF92DF92EF92FF92FC014091540128
:101420005091550120915201309153018281938155
:10143000A481B5814217530711F54081518160E0C5
:1014400070E0841B950BA60BB70BC684D784E0888D
:10145000F188C816D906EA06FB06E8F5828393836D
:10146000A483B58386819781A085B185841B950B64
:10147000A60BB70B86839783A087B1872CC04091BA
:10148000540150915501209152013091530142175E
:10149000530709F14081518160E070E0840F951F8E
:1014A000A61FB71FC284D384E484F5848C159D05E0
:1014B000AE05BF0580F482839383A483B5838681C0
:1014C0009781A085B185480F591F6A1F7B1F4683EE
:1014D000578360877187C280D380E480F580C7011D
:1014E000B6010E94DE11D701C60122E0B695A7958C
:1014F000979587952A95D1F7BC01CD016A5872401E
:10150000810991090E94851140917A03C701B601B2
:101510000E94E6130E94AF161092570110925601D6
:10152000FF90EF90DF90CF900895CF93DF93EB0182
:101530008A3021F18E3009F045C05B985C985B9A47
:101540005C980E94540C5B985C9888EE90E5AAE544
:10155000B3E08A839B83AC83BD838E839F83A887FC
:10156000B98788EA92EAACE5B3E08A879B87AC87C3
:10157000BD8788E298E8A6E5B3E020C05B985C9858
:101580005B985C9A0E94540C5B985C9888EE97E993
:10159000A9E6B2E08A839B83AC83BD838E839F835D
:1015A000A887B98788EE9BE8ABE6B2E08A879B877D
:1015B000AC87BD8788EA9EE7A8E6B2E08E879F8762
:1015C000A88BB98B81E090E09093570180935601EE
:1015D0008091560190915701019729F4CE01DF9136
:1015E000CF910C94090ADF91CF9108951F920F9229
:1015F0000FB60F9211248F938BB185FB882780F94A
:1016000080FF5D9A80FD5D988F910F900FBE0F90C7
:101610001F9018951F920F920FB60F9211242F93BF
:101620003F938F939F9386B187FB882780F990E043
:10163000909355018093540186B186FB222720F9AF
:1016400030E0309353012093520181E090E0909379
:10165000570180935601109278039F918F913F918B
:101660002F910F900FBE0F901F9018954F925F9281
:101670006F927F928F929F92AF92BF92CF92DF92A2
:10168000EF92FF9210927C0080917A0080688093A4
:101690007A0080917A00806480937A0080917A0049
:1016A00086FDFCCF80917A00806880937A008091DB
:1016B0007A00806480937A0080917A0086FDFCCF66
:1016C000609178008091790070E0782B80E090E064
:1016D0000E94371E20E030E040EA50E40E94C51E20
:1016E00020E030EC4FE754E40E94961D20E030E00B
:1016F0004AE754E40E94C51E0E94081E6B017C014B
:1017000081E080937C0080917A00806880937A00E9
:1017100080917A00806480937A0080917A0086FDBF
:10172000FCCF80917A00806880937A0080917A0063
:10173000806480937A0080917A0086FDFCCF80914E
:10174000780090917900682F70E0792B80E090E02C
:101750000E94371E20E030E040EA50E40E94C51E9F
:1017600020E030EC4FE754E40E94961D4B015C01F1
:10177000B60180E090E00E94371E6B017C0120E002
:1017800030E04AE754E4C501B4010E94C51E0E943E
:10179000081E80E090E00E94371E4B015C019B0117
:1017A000AC01C701B6010E942A1D2B013C01A50115
:1017B0009401C701B6010E94291D9B01AC01C30120
:1017C000B2010E94961D20E030E040E251E40E9408
:1017D000C51E20E030E040E05FE30E942A1D0E9429
:1017E000081ECB01FF90EF90DF90CF90BF90AF909D
:1017F0009F908F907F906F905F904F900895109280
:1018000063015E98F89460E082E00E94851078940D
:10181000089581E0809363015E9AF89461E082E02C
:101820000E948510789408950E948C1584E00E948F
:1018300008150E94360B0C949D151092780308959C
:1018400080916201807805990AC0811102C091E0FF
:1018500001C092E020916101922B90936101069961
:101860000AC0811102C082E001C081E09091610153
:10187000892B8093610108956091790370E080EF76
:1018800090E00E94621F709368036093670380E397
:101890008093620180916101846080936101089569
:1018A0008091790390E00895B19BFECFB19A08959D
:1018B00090916201937F892B8093620180916101F5
:1018C0008460809361010895909162018923089555
:1018D0009091620189278093620180916101846007
:1018E000809361010895823071F49091610194FDBB
:1018F00080936E008091610185FF17C08091620125
:1019000086FF10C011C0813081F48091610184FD97
:1019100010926E008091610185FF07C08091620185
:1019200086FF02C05A9A08955A98089580916201DC
:10193000982F9073809161018F7C892B8093610136
:1019400081E00C94730C882339F0809161018F7CC5
:1019500080618093610108950C94960C0E943C0C68
:101960000C94960C0F931F93CF93DF930E94960CC9
:101970000E94090C82E00E94730C00ED17E0C0E0A9
:10198000D0E0059909C081E00E94730CDF91CF91EE
:101990001F910F910C94FF0B069BF5CF0E94540CE6
:1019A0002196C233D10521F40E94140CC0E0D0E08E
:1019B0000150110931F7E7CFCF93DF93C82FCC2324
:1019C00051F0D0916703DD2321F00E94540CD150D7
:1019D000FACFC150F4CFDF91CF910895CF93C82FA4
:1019E00082E00E94730CC13021F0C23029F483E000
:1019F00001C081E00E94DC0C81E0CF910C94730C5B
:101A0000613091F4813031F480916001882331F1AB
:101A1000815007C0823011F5809160018F3FF1F055
:101A20008F5F809360011AC090917903813021F417
:101A3000923348F49F5F05C0823029F49B3018F040
:101A40009150909379036091790370E080EF90E07A
:101A50000E94621F70936803609367038091610125
:101A600084608093610181E00E94EE0C81E00E941D
:101A7000DC0C82E00E94EE0C83E00C94DC0CCF9333
:101A800090ED980F9A3030F4E82FF0E0E857FF4FD0
:101A9000C49101C0C0E89FE9980F9A3128F4E82F5B
:101AA000F0E0EF59FF4FC4919FEB980F9A3128F463
:101AB000E82FF0E0EF57FF4FC49120E030E0F9014C
:101AC000EE54FF4FE4918E1304C0F901E452FF4F2E
:101AD000C4912F5F3F4F2630310589F7803259F48A
:101AE00084E00FC0C7FF0AC082E00E94EE0C81E0D4
:101AF0000E94DC0CCC0FC038A9F702C081E0F5CF02
:101B000082E0CF910C94DC0CCF93C8E081E00E947E
:101B1000EE0C81E00E94DC0CC150C1F783E0CF9154
:101B20000C94DC0C0F931F93CF93DF93FC01019077
:101B30000020E9F73197CE2FC81BD82F8C01802FBA
:101B40008D1B8C1750F4059B08C0069B06C0F8013E
:101B500081918F010E943F0DF2CFDF91CF911F91B4
:101B60000F9108951F93CF93DF9300D000D01F9261
:101B7000CDB7DEB710E02AE030E0009771F0E1E089
:101B8000F0E0EC0FFD1FE10FF11DB9010E944E1FA7
:101B9000805D8083CB011F5FF0CF112359F011507E
:101BA000E1E0F0E0EC0FFD1FE10FF11D80810E94EC
:101BB0003F0DF3CF80E20F900F900F900F900F909A
:101BC000DF91CF911F910C943F0DCF93C82F80913F
:101BD0005E0190915F01009729F0019790935F015A
:101BE00080935E01C11102C010925D0180915C0181
:101BF000813009F4CAC020F0823009F4E2C0F7C095
:101C00000E94200C809162018C70843049F018F49D
:101C1000882331F029C0883071F08C30E1F024C085
:101C200080915B018095909161018923809361018E
:101C300010925B0119C080916101982F93709330CD
:101C400039F490915A01992361F0909589230AC043
:101C500090935A0109C080916101982F937093303D
:101C600019F48E7F8093610180915E0190915F01F4
:101C7000892B09F049C080915901882309F43CC09F
:101C800090915801990F916027E030E0281B3109AD
:101C900001C0990F2A95EAF720E030E0822FF90180
:101CA000E854FF4FE4919E130DC02A3010F4805D7C
:101CB0000FC0243210F4895C0BC0F901E257FF4FCA
:101CC000849106C02F5F3F4F2A32310539F780E0FB
:101CD00010925901109258012091670330916803C6
:101CE000220F331F220F331F30935F0120935E01B9
:101CF00091E090935D017CC080915D01882321F08B
:101D000010925D0180E274C090916101892F83700F
:101D100009F46DC010925D01809159018F5F80932D
:101D2000590180915801880F8093580120916703D1
:101D30003091680390FF08C030935F0120935E01EB
:101D400081E080935B010FC0A901440F551F240F50
:101D5000351F30935F0120935E0192E090935B0109
:101D6000816080935801C11102C00E94090C82E079
:101D70000E94730C809161018C7F8093610181E0EE
:101D800080935C010E941D0C32C0809162018C70B6
:101D9000843011F40E94200C80915E0190915F01CB
:101DA000892B29F581E00E94730C80916703909143
:101DB000680390935F0180935E0182E080935C01F1
:101DC00016C00E94200C80915E0190915F01892BCA
:101DD00071F410925C018091670390916803909375
:101DE0005F0180935E01C11102C00E94FF0B80E081
:101DF000CF9108958F929F92AF92BF92CF92DF9230
:101E0000EF92FF920F931F93CF93DF93CDB7DEB77F
:101E1000C456D1090FB6F894DEBF0FBECDBF8130D6
:101E200009F073C008EC10E00E94540C0150110935
:101E3000D9F781E00E94A30C81E491E00E94920D09
:101E4000F090790381E1809379038EE090E09093A4
:101E500068038093670310E098EBC92E9BE0D92EAE
:101E600081E00E94E50D811104C081E0C81AD1080B
:101E70000CC0E1E0F0E0EC0FFD1FE10FF11D8083ED
:101E80001F5F88EBC82E8BE0D82E143618F00E9406
:101E9000840D10E00E94540CC114D10409F71123E1
:101EA00091F1F09279036F2D70E080EF90E00E9445
:101EB000621F70936803609367031150E12EF12C49
:101EC000DE0111966D01FD01EE0DFF1D10828FE008
:101ED000E9E6F3E0DF011D928A95E9F74F0156012B
:101EE0008A2D8C19811750F4F50101915F01802F23
:101EF0000E943F0DD4010D934D01F2CFF701E75938
:101F0000FC4F118202C00E94840DCC59DF4F0FB6E6
:101F1000F894DEBF0FBECDBFDF91CF911F910F911F
:101F2000FF90EF90DF90CF90BF90AF909F908F90F9
:101F30000C94960C4F925F926F927F928F929F9229
:101F4000AF92BF92CF92DF92EF92FF920F931F93C7
:101F5000CF93DF93C82FD62F49015A01670178012B
:101F6000CA01B9010E94371E2B013C01C701B6010D
:101F70000E94371E9B01AC01C301B2010E94961D55
:101F800020E030E040E053E40E94C51E0E94081E9D
:101F90004D2E512C612C712C27E0440C551C661CD5
:101FA000771C2A95D1F722E0521A61087108460E73
:101FB000571E681E791E37E0880C991CAA1CBB1C92
:101FC0003A95D1F7A70196010E94321F861A970A07
:101FD000A80AB90A6D2D8C2F0E9424176C2D81E060
:101FE0008C0F0E942417D301C20188279927A37060
:101FF000BB27BD018827992782E08C0F0E942417F8
:10200000652D83E08C0F0E942417642D84E08C0FD3
:102010000E942417CC24DD248FE0E822FF245CE01A
:10202000F694E794D794C7945A95D1F7D501C40193
:1020300088279927AF70BB276C2D6A2B85E08C0F02
:102040000E942417692D86E08C0F0E942417682DAA
:1020500087E08C0FDF91CF911F910F91FF90EF9050
:10206000DF90CF90BF90AF909F908F907F906F90B8
:102070005F904F900C942417CF92DF92EF92FF92D3
:10208000CF93DF93C82FD22F4450510961097E4F5F
:102090006A017B0187E0CC0CDD1CEE1CFF1C8A95DD
:1020A000D1F760E08C2F0E94241761E081E08C0F53
:1020B0000E942417D701C60188279927A370BB2740
:1020C0006D2F6A2B82E08C0F0E9424176D2D83E008
:1020D0008C0F0E9424176C2D84E08C0F0E94241713
:1020E00060E085E08C0F0E94241760E086E08C0F92
:1020F0000E94241760E087E08C0FDF91CF91FF9062
:10210000EF90DF90CF900C9424171F93CF93DF9321
:10211000C82F162F0E94F616883051F58EED0E94BA
:102120000917883129F583E00E940917883201F5E3
:102130000E94F6168031E1F48FED0E940917803479
:10214000B9F40E941617D82F0E94011781E090E081
:1021500001C0880FCA95EAF7113021F4C82FC09545
:10216000CD2302C0CD2FC82B0E94F616883029F04F
:10217000DF91CF911F910C9401178EED0E940917EA
:102180008831B1F783E00E940917883289F78C2FD4
:102190000E940917EDCF8F929F92AF92BF92CF927C
:1021A000DF92EF92FF920F931F936B017C0160E02F
:1021B00079EE84EA95E3A70196010E94761F490112
:1021C0005A0120FF05C081E0881A9108A108B108D2
:1021D000A5019401C701B6010E94321F20EC3CEF1B
:1021E0004BE951E00E94761FD22E0E94371E20EF4D
:1021F0003FEF4FE759E40E94C51E20E63EEF4DEC4D
:102200005BE40E94961D0E94081E9B01AC01EE2417
:10221000EA94FE2C0FE010E06D2D8AE10E949A0FE7
:1022200020E0B501A4018AE20E943C1060EA81EB43
:102230000E9424176FE480E11F910F91FF90EF90AF
:10224000DF90CF90BF90AF909F908F900C94241709
:102250008F929F92AF92BF92CF92DF92EF92FF92B6
:102260000F931F936B017C0160E079EE84EA95E3A4
:10227000A70196010E94761F49015A0120FF05C05F
:1022800081E0881A9108A108B108A5019401C7014D
:10229000B6010E94321F20EC3CEF4BE951E00E9456
:1022A000761FD22E0E94371E20EF3FEF4FE759E4F2
:1022B0000E94C51E20E63EEF4DEC5BE40E94961D99
:1022C0000E94081E9B01AC01EE24EA94FE2C0FE054
:1022D00010E06D2D82E20E949A0F20E0B501A4016A
:1022E0008AE30E943C1060EA81EB0E9424176FE6AB
:1022F00082E11F910F91FF90EF90DF90CF90BF9000
:10230000AF909F908F900C9424178F929F92AF92D2
:10231000BF92CF92DF92EF92FF920F931F936B01C8
:102320007C0160E079EE84EA95E3A70196010E94C2
:10233000761F49015A0120FF05C081E0881A9108E3
:10234000A108B108A5019401C701B6010E94321F7E
:1023500020EC3CEF4BE951E00E94761FD22E0E9408
:10236000371E20EF3FEF4FE759E40E94C51E20E6DD
:102370003EEF4DEC5BE40E94961D0E94081E9B01FF
:10238000AC01EE24EA94FE2C0FE010E06D2D82E209
:102390000E949A0F20E0B501A4018AE30E943C103C
:1023A0006FE682E11F910F91FF90EF90DF90CF9049
:1023B000BF90AF909F908F900C9424178F929F9214
:1023C000AF92BF92CF92DF92EF92FF920F931F9343
:1023D0006B017C0160E079EE84EA95E3A701960148
:1023E0000E94761F49015A0120FF05C081E0881A2A
:1023F0009108A108B108A5019401C701B6010E9486
:10240000321F20EC3CEF4BE951E00E94761FD22EA8
:102410000E94371E20EF3FEF4FE759E40E94C51E90
:1024200020E63EEF4DEC5BE40E94961D0E94081EE4
:102430009B01AC01EE24EA94FE2C0FE010E06D2D20
:102440008AE10E949A0F20E0B501A4018AE20E946D
:102450003C106FE480E11F910F91FF90EF90DF90AF
:10246000CF90BF90AF909F908F900C94241769519C
:102470007E4F20E03DE2389FA001399F500D11248E
:102480009FE0920FDB01FA01E20FF11DE455F44FDA
:10249000E491ED932F5F2913F6CF60587F4F2D32D3
:1024A00079F70895CF93342F20E04F5F5F4FE1E23B
:1024B000DC01EA9FC001EB9F900D1124A32FB0E037
:1024C0004A175B07BCF0B695BA2FAA27B795A79510
:1024D000A60FB71FA959BE4FCBE0C20FFC01E20FF8
:1024E000F11DE05EF54FE491ED932F5F2C13F6CFD5
:1024F0003F5FE4CFCF91089525E032E080E094E0A3
:10250000980FD901E82FF0E0ED50F64FE491ED93EC
:102510008F5F8913F7CF20583F4F8C3081F7089594
:102520004F925F926F927F928F929F92AF92BF92E3
:10253000CF92DF92EF92FF9269017A01DC01CB0129
:1025400022E0B695A795979587952A95D1F74C01E6
:102550005D012AE8821A22E0920AA108B108C501A9
:10256000B40120E836E948E950E00E94761FDA011C
:10257000C90140E050E060E070E00E945212C501E5
:10258000B40120E432E44FE050E00E94761F6AE09C
:10259000462E512C612C712CCA01B901A301920164
:1025A0000E94761FDC01CB0140E050E06BE070E060
:1025B0000E945212C501B40120EA36E841E050E021
:1025C0000E94761FCA01B901A30192010E94761FE1
:1025D000DC01CB0140E050E06BE170E00E94521260
:1025E000C501B40120E137E240E050E00E94761FCF
:1025F000CA01B901A30192010E94761FDC01CB013F
:1026000040E050E066E270E00E945212C501B40161
:1026100028EE33E040E050E00E94761FCA01B90185
:10262000A30192010E94761FDC01CB0140E050E043
:1026300061E370E00E945212C501B40124E630E06B
:1026400040E050E00E94761FCA01B901A301920147
:102650000E94761FDC01CB0140E050E06CE370E0AB
:102660000E945212C501B401A30192010E94761F7B
:10267000CA01B901A30192010E94761FDC01CB01BE
:1026800040E050E067E470E00E94521272E0F6947D
:10269000E794D794C7947A95D1F78AE8C81A82E06C
:1026A000D80AE108F1088C149D04AE04BF0438F484
:1026B00042E050E06BE170E08BE090E00BC08C14E6
:1026C0009D04AE04BF0441F042E050E06BE170E0D5
:1026D0008AE090E00E945212C818D908D7FE03C0C1
:1026E000D194C194D1080D2C000CEE08FF08C7014D
:1026F000B60128EE33E040E050E00E94761F8AE009
:10270000882E912CA12CB12CCA01B901A5019401EC
:102710000E94761FDC01CB0142E050E066E270E0EF
:102720000E945212C701B60124E630E040E050E0BA
:102730000E94761FCA01B901A50194010E94761F6B
:10274000DC01CB0142E050E061E370E00E945212F4
:10275000C701B601A50194010E94761F6B017C019F
:10276000CA01B901A50194010E94761FDC01CB01C9
:1027700042E050E06CE370E00E94521242E050E010
:1027800067E470E0C601FF90EF90DF90CF90BF90BC
:10279000AF909F908F907F906F905F904F900C9430
:1027A0005212AEE4B3E022E3829FC001112420E084
:1027B00030E0FC01E20FF31FE750F74FE491ED9397
:1027C0002F5F3F4F29313105A1F708954F925F9256
:1027D0006F927F928F929F92AF92BF92CF92DF9231
:1027E000EF92FF92CF93DF93CDB7DEB765970FB629
:1027F000F894DEBF0FBECDBF4D8BDC01CB0122E0D4
:10280000B695A795979587952A95D1F76C017D0187
:102810002AE8C21A22E0D20AE108F108C701B6018B
:1028200020E836E948E950E00E94761F49015A0144
:10283000C701B60120E432E44FE050E00E94761F69
:102840006AE0462E512C612C712CCA01B901A301FA
:1028500092010E94761F69837A838B839C83C701D0
:10286000B60120EA36E841E050E00E94761FCA0136
:10287000B901A30192010E94761F6D837E838F832D
:102880009887C701B60120E137E240E050E00E949E
:10289000761FCA01B901A30192010E94761F6987C0
:1028A0007A878B879C87C701B60128EE33E040E02A
:1028B00050E00E94761FCA01B901A30192010E9453
:1028C000761F6D877E878F87988BC701B60124E6B8
:1028D00030E040E050E00E94761FCA01B901A30138
:1028E00092010E94761F698B7A8B8B8B9C8BC70120
:1028F000B601A30192010E94761FCA01B901A3018A
:1029000092010E94761F6B017C0160E070E08114EF
:10291000910419F48BE090E001C0C4010E943712C9
:102920006FE070E089819A810E94371263E270E063
:102930008D819E810E94371262E370E089859A85BD
:102940000E94371261E470E08D859E850E943712E7
:1029500042E050E060E570E089899A890E94521255
:1029600042E050E06BE570E0C6010E9452120E9406
:102970007C128D8965960FB6F894DEBF0FBECDBF71
:10298000DF91CF91FF90EF90DF90CF90BF90AF900D
:102990009F908F907F906F905F904F900C94D11389
:1029A00047EE51E020E03BED389FB001399F700DBC
:1029B000112499E4920FDA01FB01E20FF11DE859AD
:1029C000F94FE491ED932F5F9213F6CF40585F4F8C
:1029D000292F9B3D71F7089547EE51E020E036E93D
:1029E000389FB001399F700D112492E3920FDA01E4
:1029F000FB01E20FF11DEE5DFE4FE491ED932F5FC1
:102A00009213F6CF40585F4F292F963971F70895EA
:102A1000ABEBB1E028E5829FC001112420E030E05B
:102A2000FC01E20FF31FE556F24FE491ED932F5FA7
:102A30003F4F2C323105A1F7ABE3B2E024E530E0A3
:102A40008897FC01E20FF31FE556F24FE491ED93F6
:102A50002F5F3F4F20383105A1F70895CF92DF92C5
:102A6000EF92FF920F931F93CF93DF93FC0168EED9
:102A700073E00E944E1FCB012AE030E0B9010E94B2
:102A80004E1F6C01CF0164E670E00E944E1FCB0127
:102A9000B9010E944E1F7C01CF01B9010E944E1F57
:102AA000EC01CB01B9010E944E1F8C0160E070E087
:102AB000C114D10441F48BE090E00E943712E1147C
:102AC000F10429F012C0C6010E9437120EC06FE057
:102AD00070E08BE090E00E9437120115110551F46F
:102AE0006EE170E08BE090E008C06FE070E0C7013D
:102AF0000E9437126EE170E0C8010E9437126DE249
:102B000070E0CE01DF91CF911F910F91FF90EF9078
:102B1000DF90CF900C94371227E631E044E0F901C2
:102B200080E090E01192019685369105D9F74150E9
:102B300020583F4F4111F3CF0895CF932AE0622FE1
:102B40000E94421FC92F0E94421F6FE070E0892F30
:102B500090E00E9437120E947C1263E270E08C2F9A
:102B600090E00E9437122CE132E080E090E1980F73
:102B7000D901E82FF0E0EE51FF4FE491ED938F5F24
:102B80009813F7CF20583F4F892F903379F7CF9183
:102B90000C94AF162F9A27E030E090E02F98AC010C
:102BA000022E02C0559547950A94E2F740FF02C0F5
:102BB0002D9A01C02D982F9A2150310978F7089548
:102BC000CF93C82F2B9A0E94540C2B980E94540C20
:102BD0000E94540C2B9A2C9A2A982C988EEA0E94C8
:102BE000CA152C9A2C9A2A982C9885ED0E94CA1501
:102BF0002C9A2C9A2A982C9881E40E94CA152C9A17
:102C00002C9A2A982C9888EA0E94CA152C9A2C9AF9
:102C10002A982C988FE10E94CA152C9A2C9A2A98EF
:102C20002C9883ED0E94CA152C9A2C9A2A982C98DD
:102C300080E00E94CA152C9A2C9A2A982C9880E43D
:102C40000E94CA152C9A2C9A2A982C988DE80E94DA
:102C5000CA152C9A2C9A2A982C98C13011F480E12C
:102C600001C084E10E94CA152C9A2C9A2A982C98AB
:102C700080E20E94CA152C9A2C9A2A982C9880E0FF
:102C80000E94CA152C9A2C9A2A982C9881EA0E94A4
:102C9000CA152C9A2C9A2A982C9888EC0E94CA154E
:102CA0002C9A2C9A2A982C988AED0E94CA152C9A54
:102CB0002C9A2A982C9882E00E94CA152C9A2C9A59
:102CC0002A982C988FEF0E94CA152C9A2C9A2A9831
:102CD0002C9880E00E94CA152C9A2C9A2A982C983D
:102CE00089ED0E94CA152C9A2C9A2A982C98C130EA
:102CF00011F482E201C081EF0E94CA152C9A2C9A2D
:102D00002A982C988BED0E94CA152C9A2C9A2A98F6
:102D10002C9880E40E94CA152C9A2C9A2A982C98F8
:102D200084EA0E94CA152C9A2C9A2A982C9886EA32
:102D30000E94CA152C9A2C9A2A982C988FEA0E94E5
:102D4000CA152C9ACF91089580E092E0E7E6F1E071
:102D5000DF019C011D9221503040E1F70895CF938F
:102D6000DF932C9A2A982C9881E20E94CA152C9AFB
:102D70002C9A2A982C9880E00E94CA152C9A2C9A9A
:102D80002A982C988FE70E94CA152C9A2C9A2A9878
:102D90002C9882E20E94CA152C9A2C9A2A982C9878
:102DA00080E00E94CA152C9A2C9A2A982C9883E0CD
:102DB0000E94CA152C9AC7E6D1E02C9A2A9A2C9820
:102DC00089910E94CA152C9A83E0C736D807A9F7C3
:102DD000DF91CF9108958CE08093B8001092B900F4
:102DE0008FEF8093BB0010926400089584EA809373
:102DF000BC008091BC0087FFFCCF8091B900887F28
:102E0000089584E98093BC008091BC0084FDFCCFD0
:102E100008958093BB0084E88093BC008091BC003F
:102E200087FFFCCF8091B900887F089584E8809364
:102E3000BC008091BC0087FFFCCF8091BB0008954F
:102E40008091B900887F0895CF93DF93D82FC62F44
:102E50000E94F616883099F48EED0E940917883189
:102E600081F48D2F0E940917883269F48C2F0E94FB
:102E70000917883251F40E94011780E007C081E0F1
:102E800005C082E003C083E001C084E0DF91CF9100
:102E900008951F93CF93DF93182FEB010E94F6162E
:102EA000883009F58EED0E9409178831F1F4812FE1
:102EB0000E9409178832D9F40E94F6168031C9F4AD
:102EC0008FED0E9409178034B1F484EC8093BC002C
:102ED0008091BC0087FFFCCF8091BB0088830E945B
:102EE000011780E009C081E007C082E005C083E0EF
:102EF00003C084E001C085E0DF91CF911F91089568
:102F0000CF93DF93CDB7DEB7C056D1090FB6F89493
:102F1000DEBF0FBECDBF5A985E9A6CE071E089E6C5
:102F200093E00E94B81F44E150E060E070E0CE0101
:102F3000855B9F4F0E94812288E981B98FEF84B918
:102F40009BE397B98AB998EF92B985B988B98BEFA5
:102F50008BB98091690080628093690080916800DC
:102F600084608093680080916D00806880936D001C
:102F700082E080936E0084BD16BC83E085BD80E650
:102F800087BD10926F00109285001092840080918E
:102F900081008B608093810081E792E090938900AB
:102FA00080938800289829980E94540C289A299880
:102FB0000E94540C2898299884E190E00E94912264
:102FC000853A59F54CE050E0BE01655B7F4F89E6DC
:102FD00093E00E94BF1F6B964FAD6B972B964FAF40
:102FE0002B9760E080E00E948D096C968FAD6C9706
:102FF000809379036E968FAD6E972A968FAF2A973E
:103000006D968FAD6D9728968FAF28976F968FAD81
:103010006F9729968FAF299711C085E02B968FAFB8
:103020002B9792E19093790328961FAE28972996C3
:103030008FAF29978AE02A968FAF2A97BE016D5CE1
:103040007F4F2A968FAD2A970E94950A88EE93E0CB
:103050009CAB8BAB109266011092780381E00E94CA
:10306000E0150E94A4160E94AF1678940E94EB16F9
:103070006DA97EA98FA998AD0E94CB108DA99EA99C
:10308000AFA9B8AD12E0B695A795979587951A9513
:10309000D1F7BC01CD016A587240810991090E94A3
:1030A000281160E082E00E9485100E94AE0C08E0CA
:1030B00010E00E943F0901501109D9F70E945209FE
:1030C00004E010E027961FAF0EAF27970E94520929
:1030D00027961FAF0EAF27970E94520927961FAF62
:1030E0000EAF27970E94520927961FAF0EAF279762
:1030F00008E010E00E94660901501109D9F72896EE
:103100008FAD289781112BC00E94A4160E94FD0844
:103110006DA97EA98FA998AD40917A030E94E6130C
:103120000E94AF165E9881E00E94A30C89E693E0AE
:103130000E94920D80E00E94A30C412C10E078E0E8
:10314000E72EF12C6E012FE5C20ED11CCE010196A7
:103150005C01E0EF8E2E912CF2E02F2E45C008E0AE
:1031600010E00E94790901501109D9F7CDCF21E073
:103170006212BCC22B964FAD2B97672D862D0E94F5
:103180008D092B968FAF2B970E948C152B968FADA8
:103190002B9790E00E94EC1418E001E0F1E06F162C
:1031A00009F463C37F1609F460C321E0521609F4E1
:1031B0005CC331E0331609F458C3013009F45BC332
:1031C00088ECE816F10421F40E94FD08E12CF12CB2
:1031D00080917A03843009F08DC381E00E94A30CB2
:1031E00088EA90E00E94920D809163018111F0CFF6
:1031F0009FEFE91AF90A11110BC0809156019091C5
:103200005701019701F5CE01C3960E94090A1BC020
:103210001330C8F01630B9F0059B02C0069913C0F0
:1032200080E00E94A30C0E94A4166DA97EA98FA91C
:1032300098AD40917A030E94E6130E94AF1685E094
:103240000E94DC0C10E020917803213081F4809101
:103250004D0190914E01019790934E0180934D0145
:10326000892B29F4109278032093660115E0329996
:1032700092C3111118C068EC662E712C329908C0E7
:10328000E1E06E1A71080E94540C61147104B1F7E8
:10329000329BFECF6114710409F480C3F4EB6F1606
:1032A000710430F079C3439425E0421275C37BC3A7
:1032B0001F5F312C552453948091560190915701F2
:1032C000412F50E0019709F097C3809154019091EC
:1032D0005501E0915201F09153018E179F0781F43F
:1032E0008091540190915501E0915201F091530168
:1032F000772473948E179F0709F0712C612C03C0FB
:10330000712C662463941092570110925601FA01B1
:103310003197EB30F10508F0A0C2E25CFF4F0C944E
:10332000981F31E063120BC089AD9AADABADBCAD57
:10333000BC01CD01685D7F4F8F4F9F4F0DC081E075
:10334000781211C089AD9AADABADBCADBC01CD0159
:10335000685271098109910969AF7AAF8BAF9CAF4F
:103360000E94DE1103C091E0591264C30E948C15C3
:1033700029AD3AAD4BAD5CAD6DA97EA98FA998ADD5
:103380000E94901271C2E1E06E121BC027968EADB2
:103390009FAD2797099709F428C35E9A0E945209A6
:1033A0005E9827968EAD9FAD2797019627969FAF83
:1033B0008EAF27970E948C1527968EAD9FAD2797CD
:1033C00046C2F1E07F1229C327968EAD9FAD2797A5
:1033D000892B09F444C25E9A0E943F095E982796A1
:1033E0008EAD9FAD2797019727969FAF8EAF2797FA
:1033F0000E948C1527968EAD9FAD27970E942E15A3
:1034000012E02BC221E0621611F072124DC08BA99E
:103410009CA9969587959695879531E0631212C081
:103420008233910539F138F48130910531F18A30D8
:103430009105E9F027C08436910511F18A3F910585
:1034400099F020C082339105C1F038F481309105A4
:10345000B9F08A30910541F015C08436910539F0F4
:103460008A3F910539F00EC081E090E00BC082E305
:1034700090E008C084E690E005C08AE090E002C0D9
:103480008AEF90E0880F991F880F991F9CAB8BAB38
:103490000E948C158BA99CA99695879596958795E2
:1034A0000E942E1513E0D9C181E03812A2C20E94F9
:1034B000A30C0E948C158BA99CA99695879596952F
:1034C00087950E942E1595C291E0691611F0791228
:1034D0002BC00E948C1580E090E00E94D0142898A8
:1034E00029980E94540C2898299A0E94540C2898D4
:1034F00029980E94B20C289A29980E94540C289866
:10350000299880E00E94A30C0E94A4166DA97EA9B0
:103510008FA998AD40917A030E94E6130E94AF16DE
:1035200085E00E94DC0C71C0E1E05E1285C20E9461
:103530008C1598C0F1E06F1641F021E0721629F069
:1035400080916601813009F062C00E948C15109252
:10355000660181E090E00E94D01485E00E94081589
:103560000E94AF1631E0631203C064E171E005C050
:1035700081E0781206C060E271E080E091E00E9494
:10358000B81F80E00E94A30C0E94090C2BE430E0DD
:10359000F60131832083DF92CF9289E693E09F93F7
:1035A0008F939F938F9380E091E09F938F9323E37A
:1035B00031E03F932F93BF92AF920E94CE1FC5017F
:1035C0000E94920D0E94FF0B0E94A4166DA97EA975
:1035D0008FA998AD40917A030E94E6130E94AF161E
:1035E00029968FAD29970FB6F894DEBF0FBECDBFD9
:1035F000882359F091E090937803F8EC8F9FC001F5
:10360000112490934E0180934D0110E026C121E0DA
:10361000521609F48CCF15E018C231E0631611F090
:1036200073121DC00E948C1582E090E00E94D0149D
:1036300086E00E9408150E94AF1661E081E00E94BA
:10364000FA0E0E94A4166DA97EA98FA998AD40918B
:103650007A030E94E6130E94AF1610E00CC181E0CD
:103660005812ECC180E090E00E94D014FDC091E0BF
:10367000691214C060917903623380F46F5F6093C4
:10368000790370E0C4010E94621F70936803609325
:1036900067030E948C158091790380C0E1E07E125F
:1036A0001AC0609179036B30B0F061506093790378
:1036B00070E0C4010E94621F709368036093670307
:1036C0000E948C158091790390E00E942E1517E0DE
:1036D000AFC1712C612CF1E05F12BCC00E948C154F
:1036E0008091790390E00E942E15B4C0721609F4FF
:1036F00041CD31E05312A4C10E948C152B968FADA1
:103700002B9790E037C081E0681611F0781228C03E
:1037100028968FAD2897813059F45E9A18E00E9460
:1037200066091150E1F75E9828961FAE28970DC0E4
:1037300081110BC05E9A18E00E9479091150E1F7DF
:103740005E9881E028968FAF28970E948C15289666
:103750008FAD289790E003960E94EC1419E01DCDE0
:1037600091E059126FC10E948C1528968FAD289751
:1037700090E003960E94EC1477C0E1E06E1212C054
:1037800029968FAD29978A3068F48F5F29968FAF7D
:1037900029970E948C1529968FAD299790E00E9459
:1037A0002E1546C1F1E07F1215C029968FAD2997DD
:1037B000882381F0815029968FAF29970E948C151C
:1037C00029968FAD299790E00E942E151AE030C1FE
:1037D000712C612C21E052123FC00E948C15299659
:1037E0008FAD299790E00E942E1536C031E0631608
:1037F00011F0731223C02A968FAD2A978A3041F4B4
:103800008EE02A968FAF2A97BE016D5C7F4F0AC06B
:103810008E3051F49AE02A969FAF2A97BE016D5CD4
:103820007F4F8AE00E94950A0E948C152A968FADE0
:103830002A9790E00E942E151BE0AFCCE1E05E12CB
:1038400003C10E948C152A968FAD2A9790E00E94A2
:103850002E150AC017E001C01AE000E09FCCF1E08D
:103860005F1609F4C5CD12E000E0812F0E94081513
:103870000E94AF16A2CC81E00E94A30C8FE391E0DE
:103880000E94920D80E00E94A30C65EA84E190E022
:103890000E94A9224FE050E069E673E0CE01855B0B
:1038A0009F4F0E94BF1F2B968FAD2B976B968FAFAC
:1038B0006B97809179036C968FAF6C9728968FAD3C
:1038C00028976D968FAF6D972A968FAD2A976E9633
:1038D0008FAF6E9729968FAD29976F968FAF6F97A1
:1038E00044E150E060E070E0CE01855B9F4F0E94B4
:1038F000992266CC0E94540C80914F01811103C023
:103900000E94E50D71CC80914C018130E1F018F0FE
:103910008230C9F169CC059967CC82E390E090933D
:1039200065018093640181E0809363010E94090C2A
:1039300082E00E94730C1092780380914C018F5F9B
:1039400080934C0151CC059906C082E00E94730C13
:1039500082E390E00EC08091640190916501892B13
:1039600069F081E00E94730C80916401909165017F
:103970000197909365018093640136CC81E00E94A9
:10398000730C20924C0181E00E94730C0E94FF0B8B
:1039900010924C0129CC412C312C03C013E033246C
:1039A0003394512C89CC123011F01B3089F480E013
:1039B0000E94A30C0E94A4166DA97EA98FA998ADA0
:1039C00040917A030E94E6130E94AF1610E071CC7A
:1039D000113009F06DCCF8946DA97EA98FA998AD2E
:1039E0000E94DE11789412E064CC91E079121CC040
:1039F000F2CC00E013E0D9CBFA013197EB30F105BE
:103A000010F000E0D2CBE75BFF4F0C94981F712CB5
:103A1000612C03C0712C612C93CDE1E05E1609F49A
:103A2000E7CC00E012E0C5CB21E052121DCFE0CC84
:103A300001E01BCF11E009C014E007C016E005C08B
:103A400018E003C019E001C01BE031E03312B8CB2D
:103A50000BCF5058BB27AA270E94411D0C948B1EE8
:103A60000E947D1E38F00E94841E20F039F49F3F92
:103A700019F426F40C947A1E0EF4E095E7FB0C94EE
:103A8000741EE92F0E949C1E58F3BA176207730731
:103A90008407950720F079F4A6F50C94BE1E0EF469
:103AA000E0950B2EBA2FA02D0B01B90190010C014E
:103AB000CA01A0011124FF27591B99F0593F50F466
:103AC000503E68F11A16F040A22F232F342F4427BE
:103AD000585FF3CF469537952795A795F0405395B6
:103AE000C9F77EF41F16BA0B620B730B840BBAF086
:103AF0009150A1F0FF0FBB1F661F771F881FC2F7F1
:103B00000EC0BA0F621F731F841F48F48795779504
:103B10006795B795F7959E3F08F0B0CF9395880FBE
:103B200008F09927EE0F9795879508950E94AA1D92
:103B30000C948B1E0E94841E58F00E947D1E40F043
:103B400029F45F3F29F00C94741E51110C94BF1E90
:103B50000C947A1E0E949C1E68F39923B1F355239E
:103B600091F3951B550BBB27AA2762177307840790
:103B700038F09F5F5F4F220F331F441FAA1FA9F326
:103B800035D00E2E3AF0E0E832D091505040E69514
:103B9000001CCAF72BD0FE2F29D0660F771F881F75
:103BA000BB1F261737074807AB07B0E809F0BB0B68
:103BB000802DBF01FF2793585F4F3AF09E3F51057C
:103BC00078F00C94741E0C94BF1E5F3FE4F3983E93
:103BD000D4F3869577956795B795F7959F5FC9F765
:103BE000880F911D9695879597F90895E1E0660FE6
:103BF000771F881FBB1F621773078407BA0720F05F
:103C0000621B730B840BBA0BEE1F88F7E0950895C7
:103C10000E94A41E88F09F5798F0B92F9927B7519A
:103C2000B0F0E1F0660F771F881F991F1AF0BA9560
:103C3000C9F714C0B13091F00E94BE1EB1E00895E2
:103C40000C94BE1E672F782F8827B85F39F0B93FD4
:103C5000CCF3869577956795B395D9F73EF4909513
:103C60008095709561957F4F8F4F9F4F0895E89491
:103C700009C097FB3EF490958095709561957F4FB4
:103C80008F4F9F4F9923A9F0F92F96E9BB27939562
:103C9000F695879577956795B795F111F8CFFAF472
:103CA000BB0F11F460FF1BC06F5F7F4F8F4F9F4FA3
:103CB00016C0882311F096E911C0772321F09EE801
:103CC000872F762F05C0662371F096E8862F70E067
:103CD00060E02AF09A95660F771F881FDAF7880F41
:103CE0009695879597F9089597F99F6780E870E012
:103CF00060E008959FEF80EC089500240A94161662
:103D0000170618060906089500240A9412161306C9
:103D1000140605060895092E0394000C11F4882357
:103D200052F0BB0F40F4BF2B11F460FF04C06F5F73
:103D30007F4F8F4F9F4F089557FD9058440F551F49
:103D400059F05F3F71F04795880F97FB991F61F01D
:103D50009F3F79F087950895121613061406551F94
:103D6000F2CF4695F1DF08C0161617061806991F00
:103D7000F1CF86957105610508940895E894BB27F5
:103D800066277727CB0197F908950E94D81E0C94D7
:103D90008B1E0E947D1E38F00E94841E20F0952309
:103DA00011F00C94741E0C947A1E11240C94BF1EF6
:103DB0000E949C1E70F3959FC1F3950F50E0551F14
:103DC000629FF001729FBB27F00DB11D639FAA2770
:103DD000F00DB11DAA1F649F6627B00DA11D661FBF
:103DE000829F2227B00DA11D621F739FB00DA11DE0
:103DF000621F839FA00D611D221F749F3327A00D9A
:103E0000611D231F849F600D211D822F762F6A2F35
:103E100011249F5750409AF0F1F088234AF0EE0F9A
:103E2000FF1FBB1F661F771F881F91505040A9F7C7
:103E30009E3F510580F00C94741E0C94BF1E5F3F92
:103E4000E4F3983ED4F3869577956795B795F79503
:103E5000E7959F5FC1F7FE2B880F911D969587957B
:103E600097F90895DB018F939F930E949E1FBF9146
:103E7000AF91A29F800D911DA39F900DB29F900DB9
:103E800011240895991B79E004C0991F961708F032
:103E9000961B881F7A95C9F780950895AA1BBB1BAE
:103EA00051E107C0AA1FBB1FA617B70710F0A61B3A
:103EB000B70B881F991F5A95A9F780959095BC015B
:103EC000CD01089597FB072E16F4009407D077FDD7
:103ED00009D00E944E1F07FC05D03EF490958195B5
:103EE0009F4F0895709561957F4F0895A1E21A2E16
:103EF000AA1BBB1BFD010DC0AA1FBB1FEE1FFF1F8E
:103F0000A217B307E407F50720F0A21BB30BE40BDD
:103F1000F50B661F771F881F991F1A9469F7609524
:103F20007095809590959B01AC01BD01CF010895DE
:103F3000EE0FFF1F0590F491E02D09940E94A91F38
:103F4000A59F900DB49F900DA49F800D911D1124ED
:103F50000895A29FB001B39FC001A39F700D811D62
:103F60001124911DB29F700D811D1124911D089582
:103F7000FB01DC0101900D920020E1F70895FB01A7
:103F8000DC014150504048F001900D920020C9F7EB
:103F900001C01D9241505040E0F70895AEE0B0E0FE
:103FA000E4EDFFE10C94C9220D891E8986E08C8323
:103FB0001A8309838FEF9FE79E838D83AE01475E4F
:103FC0005F4F6F89788DCE0101960E94F01FEF81BF
:103FD000F885E00FF11F10822E96E4E00C94E522A4
:103FE000ABE0B0E0E6EFFFE10C94BB226C017B019B
:103FF0008A01FC0117821682838181FFCCC1CE0128
:1040000001963C01F6019381F70193FD859193FFA1
:1040100081917F01882309F4BAC1853239F493FD77
:10402000859193FF81917F01853229F4B60190E05B
:104030000E94E721E7CF912C212C312CFFE1F315D1
:10404000D8F08B3279F038F4803279F08332A1F4F1
:10405000232D20611DC08D3261F0803369F4232D42
:10406000216016C0832D8260382EE32DE4603E2E41
:104070002AC0F32DF8601DC037FC2DC020ED280F9D
:104080002A3040F08E32B9F436FC81C1232D2064F1
:10409000322E19C036FE06C08AE0989E200D1124EB
:1040A000922E11C0EAE02E9E200D1124222EF32D17
:1040B000F0623F2E08C08C3621F4832D8068382EA4
:1040C00002C0883641F4F70193FD859193FF8191F9
:1040D0007F018111B3CF982F9F7D9554933028F4A1
:1040E0000C5F1F4F9FE399830DC0833631F08337F8
:1040F00071F0833509F059C021C0F80180818983AE
:104100000E5F1F4F88248394912C530113C0280104
:10411000F2E04F0E511CF801A080B18036FE03C0C2
:10412000692D70E002C06FEF7FEFC5010E94DC21B6
:104130004C018201F32DFF773F2E16C0280122E0AB
:10414000420E511CF801A080B18036FE03C0692DDB
:1041500070E002C06FEF7FEFC5010E94D1214C01DA
:10416000F32DF0683F2E820133FC1BC0822D90E0BE
:1041700088169906B0F4B60180E290E00E94E7212B
:104180002A94F4CFF50137FC859137FE81915F01C8
:10419000B60190E00E94E72121102A9421E0821AC2
:1041A00091088114910471F7E8C0843611F08936C2
:1041B00041F5F80137FE07C06081718182819381EA
:1041C0000C5F1F4F08C060817181072E000C880BA7
:1041D000990B0E5F1F4FF32DFF763F2E97FF09C0FF
:1041E00090958095709561957F4F8F4F9F4FF068A8
:1041F0003F2E2AE030E0A3010E942322882E861859
:1042000045C0853731F4232D2F7EB22E2AE030E0D1
:1042100025C0932D997FB92E8F36C1F018F48835BB
:1042200079F0B5C0803719F0883721F0B0C0E92F98
:10423000E061BE2EB4FE0DC0FB2DF460BF2E09C0A0
:1042400034FE0AC0292F2660B22E06C028E030E0D6
:1042500005C020E130E002C020E132E0F801B7FE05
:1042600007C060817181828193810C5F1F4F06C0FE
:104270006081718180E090E00E5F1F4FA3010E947A
:104280002322882E8618FB2DFF773F2E36FE0DC089
:10429000232D2E7FA22E891458F434FE0BC032FC3D
:1042A00009C0832D8E7EA82E05C0B82CA32C03C078
:1042B000B82C01C0B92CA4FE0FC0FE01E80DF11D01
:1042C0008081803321F49A2D997EA92E09C0A2FE07
:1042D00006C0B394B39404C08A2D867809F0B394D1
:1042E000A3FC11C0A0FE06C0B21488F4280C922CC6
:1042F0009B180EC0B21460F4B60180E290E00E94F8
:10430000E721B394F7CFB21418F42B1802C0982CFD
:10431000212CA4FE10C0B60180E390E00E94E721AA
:10432000A2FE17C0A1FC03C088E790E002C088E5A8
:1043300090E0B6010CC08A2D867859F0A1FE02C02B
:104340008BE201C080E2A7FC8DE2B60190E00E9402
:10435000E721891438F4B60180E390E00E94E72158
:104360009A94F7CF8A94F301E80DF11D8081B6018C
:1043700090E00E94E7218110F5CF222009F442CE7F
:10438000B60180E290E00E94E7212A94F6CFF60180
:104390008681978102C08FEF9FEF2B96E2E10C940C
:1043A000D722FC010590615070400110D8F780952C
:1043B00090958E0F9F1F0895FC01615070400190F1
:1043C0000110D8F7809590958E0F9F1F08950F9339
:1043D0001F93CF93DF93FB01238121FD03C08FEF58
:1043E0009FEF2CC022FF16C0468157812481358162
:1043F0004217530744F4A081B1819D012F5F3F4FC5
:10440000318320838C93268137812F5F3F4F378301
:10441000268314C08B01EC01FB010084F185E02DA3
:104420000995892BE1F6D80116968D919C911797E5
:10443000019617969C938E931697CE01DF91CF919C
:104440001F910F910895FA01AA27283051F12031C8
:1044500081F1E8946F936E7F6E5F7F4F8F4F9F4F18
:10446000AF4FB1E03ED0B4E03CD0670F781F891F5A
:104470009A1FA11D680F791F8A1F911DA11D6A0F28
:10448000711D811D911DA11D20D009F468943F91DB
:104490002AE0269F11243019305D3193DEF6CF01DA
:1044A0000895462F4770405D4193B3E00FD0C9F7A0
:1044B000F6CF462F4F70405D4A3318F0495D31FD0D
:1044C0004052419302D0A9F7EACFB4E0A695979560
:1044D000879577956795BA95C9F700976105710536
:1044E00008959B01AC010A2E069457954795379580
:1044F0002795BA95C9F7620F731F841F951FA01DDA
:104500000895DC01CB01FC01F999FECF06C0F2BD94
:10451000E1BDF89A319600B40D9241505040B8F781
:104520000895F999FECF92BD81BDF89A992780B57B
:104530000895DC01A40FB51F4150504048F0CB0155
:10454000840F951F2E910E94AA2241505040D0F70F
:104550000895262FF999FECF92BD81BDF89A019753
:1045600000B4021639F01FBA20BD0FB6F894FA9ABB
:10457000F99A0FBE08952F923F924F925F926F92D9
:104580007F928F929F92AF92BF92CF92DF92EF92E3
:10459000FF920F931F93CF93DF93CDB7DEB7CA1B64
:1045A000DB0B0FB6F894DEBF0FBECDBF09942A888F
:1045B000398848885F846E847D848C849B84AA8437
:1045C000B984C884DF80EE80FD800C811B81AA81C4
:1045D000B981CE0FD11D0FB6F894DEBF0FBECDBF8F
:0845E000ED010895F894FFCFEE
:1045E8004351204351204351206465004D354556C1
:1045F800542F5000435120435120435120646500FB
:10460800435120534F544120435120534F5441208C
:1046180064650025732025732025732025730054B5
:0C462800006520652065206520740000FE
:00000001FF
